{
  "_format": "hh-sol-artifact-1",
  "contractName": "SimpleRewards",
  "sourceName": "contracts/SimpleRewards.sol",
  "abi": [
    {
      "anonymous": false,
      "inputs": [
        {
          "indexed": true,
          "internalType": "address",
          "name": "previousOwner",
          "type": "address"
        },
        {
          "indexed": true,
          "internalType": "address",
          "name": "newOwner",
          "type": "address"
        }
      ],
      "name": "OwnershipTransferred",
      "type": "event"
    },
    {
      "anonymous": false,
      "inputs": [
        {
          "indexed": true,
          "internalType": "address",
          "name": "",
          "type": "address"
        }
      ],
      "name": "ReceiverRefusedReward",
      "type": "event"
    },
    {
      "inputs": [
        {
          "internalType": "address[]",
          "name": "receivers",
          "type": "address[]"
        },
        {
          "internalType": "uint256[]",
          "name": "values",
          "type": "uint256[]"
        }
      ],
      "name": "distribute",
      "outputs": [],
      "stateMutability": "payable",
      "type": "function"
    },
    {
      "inputs": [],
      "name": "owner",
      "outputs": [
        {
          "internalType": "address",
          "name": "",
          "type": "address"
        }
      ],
      "stateMutability": "view",
      "type": "function"
    },
    {
      "inputs": [],
      "name": "renounceOwnership",
      "outputs": [],
      "stateMutability": "nonpayable",
      "type": "function"
    },
    {
      "inputs": [
        {
          "internalType": "address",
          "name": "newOwner",
          "type": "address"
        }
      ],
      "name": "transferOwnership",
      "outputs": [],
      "stateMutability": "nonpayable",
      "type": "function"
    }
  ],
  "bytecode": "0x608060405234801561001057600080fd5b5061002d61002261003260201b60201c565b61003a60201b60201c565b6100fe565b600033905090565b60008060009054906101000a900473ffffffffffffffffffffffffffffffffffffffff169050816000806101000a81548173ffffffffffffffffffffffffffffffffffffffff021916908373ffffffffffffffffffffffffffffffffffffffff1602179055508173ffffffffffffffffffffffffffffffffffffffff168173ffffffffffffffffffffffffffffffffffffffff167f8be0079c531659141344cd1fd0a4f28419497f9722a3daafe3b4186f6b6457e060405160405180910390a35050565b610a778061010d6000396000f3fe60806040526004361061003f5760003560e01c80632929abe614610044578063715018a6146100605780638da5cb5b14610077578063f2fde38b146100a2575b600080fd5b61005e600480360381019061005991906106e0565b6100cb565b005b34801561006c57600080fd5b506100756102ec565b005b34801561008357600080fd5b5061008c610374565b6040516100999190610830565b60405180910390f35b3480156100ae57600080fd5b506100c960048036038101906100c491906106b7565b61039d565b005b60005b8251811015610265576000838281518110610112577f4e487b7100000000000000000000000000000000000000000000000000000000600052603260045260246000fd5b602002602001015173ffffffffffffffffffffffffffffffffffffffff16838381518110610169577f4e487b7100000000000000000000000000000000000000000000000000000000600052603260045260246000fd5b6020026020010151610bb8906040516101819061081b565b600060405180830381858888f193505050503d80600081146101bf576040519150601f19603f3d011682016040523d82523d6000602084013e6101c4565b606091505b505090508061025157838281518110610206577f4e487b7100000000000000000000000000000000000000000000000000000000600052603260045260246000fd5b602002602001015173ffffffffffffffffffffffffffffffffffffffff167ff9d219039f5b6aec8c21e1a934b5c0e34c786cf4f87f3f983efa14b38e30ec4b60405160405180910390a25b50808061025d9061096c565b9150506100ce565b50600047905060008111156102e75760003373ffffffffffffffffffffffffffffffffffffffff1682610bb89060405161029e9061081b565b600060405180830381858888f193505050503d80600081146102dc576040519150601f19603f3d011682016040523d82523d6000602084013e6102e1565b606091505b50509050505b505050565b6102f4610495565b73ffffffffffffffffffffffffffffffffffffffff16610312610374565b73ffffffffffffffffffffffffffffffffffffffff1614610368576040517f08c379a000000000000000000000000000000000000000000000000000000000815260040161035f9061086b565b60405180910390fd5b610372600061049d565b565b60008060009054906101000a900473ffffffffffffffffffffffffffffffffffffffff16905090565b6103a5610495565b73ffffffffffffffffffffffffffffffffffffffff166103c3610374565b73ffffffffffffffffffffffffffffffffffffffff1614610419576040517f08c379a00000000000000000000000000000000000000000000000000000000081526004016104109061086b565b60405180910390fd5b600073ffffffffffffffffffffffffffffffffffffffff168173ffffffffffffffffffffffffffffffffffffffff161415610489576040517f08c379a00000000000000000000000000000000000000000000000000000000081526004016104809061084b565b60405180910390fd5b6104928161049d565b50565b600033905090565b60008060009054906101000a900473ffffffffffffffffffffffffffffffffffffffff169050816000806101000a81548173ffffffffffffffffffffffffffffffffffffffff021916908373ffffffffffffffffffffffffffffffffffffffff1602179055508173ffffffffffffffffffffffffffffffffffffffff168173ffffffffffffffffffffffffffffffffffffffff167f8be0079c531659141344cd1fd0a4f28419497f9722a3daafe3b4186f6b6457e060405160405180910390a35050565b600061057461056f846108bc565b61088b565b9050808382526020820190508285602086028201111561059357600080fd5b60005b858110156105c357816105a98882610639565b845260208401935060208301925050600181019050610596565b5050509392505050565b60006105e06105db846108e8565b61088b565b905080838252602082019050828560208602820111156105ff57600080fd5b60005b8581101561062f578161061588826106a2565b845260208401935060208301925050600181019050610602565b5050509392505050565b60008135905061064881610a13565b92915050565b600082601f83011261065f57600080fd5b813561066f848260208601610561565b91505092915050565b600082601f83011261068957600080fd5b81356106998482602086016105cd565b91505092915050565b6000813590506106b181610a2a565b92915050565b6000602082840312156106c957600080fd5b60006106d784828501610639565b91505092915050565b600080604083850312156106f357600080fd5b600083013567ffffffffffffffff81111561070d57600080fd5b6107198582860161064e565b925050602083013567ffffffffffffffff81111561073657600080fd5b61074285828601610678565b9150509250929050565b61075581610930565b82525050565b600061076860268361091f565b91507f4f776e61626c653a206e6577206f776e657220697320746865207a65726f206160008301527f64647265737300000000000000000000000000000000000000000000000000006020830152604082019050919050565b60006107ce60208361091f565b91507f4f776e61626c653a2063616c6c6572206973206e6f7420746865206f776e65726000830152602082019050919050565b600061080e600083610914565b9150600082019050919050565b600061082682610801565b9150819050919050565b6000602082019050610845600083018461074c565b92915050565b600060208201905081810360008301526108648161075b565b9050919050565b60006020820190508181036000830152610884816107c1565b9050919050565b6000604051905081810181811067ffffffffffffffff821117156108b2576108b16109e4565b5b8060405250919050565b600067ffffffffffffffff8211156108d7576108d66109e4565b5b602082029050602081019050919050565b600067ffffffffffffffff821115610903576109026109e4565b5b602082029050602081019050919050565b600081905092915050565b600082825260208201905092915050565b600061093b82610942565b9050919050565b600073ffffffffffffffffffffffffffffffffffffffff82169050919050565b6000819050919050565b600061097782610962565b91507fffffffffffffffffffffffffffffffffffffffffffffffffffffffffffffffff8214156109aa576109a96109b5565b5b600182019050919050565b7f4e487b7100000000000000000000000000000000000000000000000000000000600052601160045260246000fd5b7f4e487b7100000000000000000000000000000000000000000000000000000000600052604160045260246000fd5b610a1c81610930565b8114610a2757600080fd5b50565b610a3381610962565b8114610a3e57600080fd5b5056fea2646970667358221220efa3345a09d1caeb38b4fe5a59955d6355391033a959deb9da202011c3d67c1664736f6c63430008000033",
  "linkReferences": {},
  "deployedLinkReferences": {}
}