{
  "_format": "hh-sol-artifact-1",
  "contractName": "SimpleRewards",
  "sourceName": "contracts/SimpleRewards.sol",
  "abi": [
    {
      "anonymous": false,
      "inputs": [
        {
          "indexed": true,
          "internalType": "address",
          "name": "",
          "type": "address"
        }
      ],
      "name": "ReceiverRefusedReward",
      "type": "event"
    },
    {
      "inputs": [
        {
          "internalType": "address[]",
          "name": "receivers",
          "type": "address[]"
        },
        {
          "internalType": "uint256[]",
          "name": "values",
          "type": "uint256[]"
        }
      ],
      "name": "distribute",
      "outputs": [],
      "stateMutability": "payable",
      "type": "function"
    }
  ],
  "bytecode": "0x608060405234801561001057600080fd5b506107a6806100206000396000f3fe60806040526004361061001e5760003560e01c80632929abe614610023575b600080fd5b61003d60048036038101906100389190610469565b61003f565b005b6000805b82518110156100ad57828181518110610085577f4e487b7100000000000000000000000000000000000000000000000000000000600052603260045260246000fd5b6020026020010151826100989190610609565b915080806100a59061069b565b915050610043565b50804710156100f1576040517f08c379a00000000000000000000000000000000000000000000000000000000081526004016100e890610544565b60405180910390fd5b60005b835181101561028b576000848281518110610138577f4e487b7100000000000000000000000000000000000000000000000000000000600052603260045260246000fd5b602002602001015173ffffffffffffffffffffffffffffffffffffffff1684838151811061018f577f4e487b7100000000000000000000000000000000000000000000000000000000600052603260045260246000fd5b6020026020010151610bb8906040516101a79061052f565b600060405180830381858888f193505050503d80600081146101e5576040519150601f19603f3d011682016040523d82523d6000602084013e6101ea565b606091505b50509050806102775784828151811061022c577f4e487b7100000000000000000000000000000000000000000000000000000000600052603260045260246000fd5b602002602001015173ffffffffffffffffffffffffffffffffffffffff167ff9d219039f5b6aec8c21e1a934b5c0e34c786cf4f87f3f983efa14b38e30ec4b60405160405180910390a25b5080806102839061069b565b9150506100f4565b506000479050600081111561030d5760003373ffffffffffffffffffffffffffffffffffffffff1682610bb8906040516102c49061052f565b600060405180830381858888f193505050503d8060008114610302576040519150601f19603f3d011682016040523d82523d6000602084013e610307565b606091505b50509050505b50505050565b600061032661032184610595565b610564565b9050808382526020820190508285602086028201111561034557600080fd5b60005b85811015610375578161035b88826103eb565b845260208401935060208301925050600181019050610348565b5050509392505050565b600061039261038d846105c1565b610564565b905080838252602082019050828560208602820111156103b157600080fd5b60005b858110156103e157816103c78882610454565b8452602084019350602083019250506001810190506103b4565b5050509392505050565b6000813590506103fa81610742565b92915050565b600082601f83011261041157600080fd5b8135610421848260208601610313565b91505092915050565b600082601f83011261043b57600080fd5b813561044b84826020860161037f565b91505092915050565b60008135905061046381610759565b92915050565b6000806040838503121561047c57600080fd5b600083013567ffffffffffffffff81111561049657600080fd5b6104a285828601610400565b925050602083013567ffffffffffffffff8111156104bf57600080fd5b6104cb8582860161042a565b9150509250929050565b60006104e26012836105f8565b91507f4e6f7420656e6f7567682062616c616e636500000000000000000000000000006000830152602082019050919050565b60006105226000836105ed565b9150600082019050919050565b600061053a82610515565b9150819050919050565b6000602082019050818103600083015261055d816104d5565b9050919050565b6000604051905081810181811067ffffffffffffffff8211171561058b5761058a610713565b5b8060405250919050565b600067ffffffffffffffff8211156105b0576105af610713565b5b602082029050602081019050919050565b600067ffffffffffffffff8211156105dc576105db610713565b5b602082029050602081019050919050565b600081905092915050565b600082825260208201905092915050565b600061061482610691565b915061061f83610691565b9250827fffffffffffffffffffffffffffffffffffffffffffffffffffffffffffffffff03821115610654576106536106e4565b5b828201905092915050565b600061066a82610671565b9050919050565b600073ffffffffffffffffffffffffffffffffffffffff82169050919050565b6000819050919050565b60006106a682610691565b91507fffffffffffffffffffffffffffffffffffffffffffffffffffffffffffffffff8214156106d9576106d86106e4565b5b600182019050919050565b7f4e487b7100000000000000000000000000000000000000000000000000000000600052601160045260246000fd5b7f4e487b7100000000000000000000000000000000000000000000000000000000600052604160045260246000fd5b61074b8161065f565b811461075657600080fd5b50565b61076281610691565b811461076d57600080fd5b5056fea2646970667358221220db8845f65f93a5af0c826cd775fa5d00bd6a61bbfff31ccbd8ec88b0062f113d64736f6c63430008000033",
  "linkReferences": {},
  "deployedLinkReferences": {}
}