{
  "_format": "hh-sol-artifact-1",
  "contractName": "SimpleRewards",
  "sourceName": "contracts/SimpleRewards.sol",
  "abi": [
    {
      "anonymous": false,
      "inputs": [
        {
          "indexed": true,
          "internalType": "address",
          "name": "",
          "type": "address"
        }
      ],
      "name": "ReceiverRefusedReward",
      "type": "event"
    },
    {
      "inputs": [
        {
          "internalType": "address[]",
          "name": "receivers",
          "type": "address[]"
        },
        {
          "internalType": "uint256[]",
          "name": "values",
          "type": "uint256[]"
        }
      ],
      "name": "distribute",
      "outputs": [],
      "stateMutability": "payable",
      "type": "function"
    }
  ],
  "bytecode": "0x608060405234801561001057600080fd5b5061062c806100206000396000f3fe60806040526004361061001e5760003560e01c80632929abe614610023575b600080fd5b61003d600480360381019061003891906103b6565b61003f565b005b60005b82518110156101d9576000838281518110610086577f4e487b7100000000000000000000000000000000000000000000000000000000600052603260045260246000fd5b602002602001015173ffffffffffffffffffffffffffffffffffffffff168383815181106100dd577f4e487b7100000000000000000000000000000000000000000000000000000000600052603260045260246000fd5b6020026020010151610bb8906040516100f59061043c565b600060405180830381858888f193505050503d8060008114610133576040519150601f19603f3d011682016040523d82523d6000602084013e610138565b606091505b50509050806101c55783828151811061017a577f4e487b7100000000000000000000000000000000000000000000000000000000600052603260045260246000fd5b602002602001015173ffffffffffffffffffffffffffffffffffffffff167ff9d219039f5b6aec8c21e1a934b5c0e34c786cf4f87f3f983efa14b38e30ec4b60405160405180910390a25b5080806101d190610521565b915050610042565b506000479050600081111561025b5760003373ffffffffffffffffffffffffffffffffffffffff1682610bb8906040516102129061043c565b600060405180830381858888f193505050503d8060008114610250576040519150601f19603f3d011682016040523d82523d6000602084013e610255565b606091505b50509050505b505050565b600061027361026e84610482565b610451565b9050808382526020820190508285602086028201111561029257600080fd5b60005b858110156102c257816102a88882610338565b845260208401935060208301925050600181019050610295565b5050509392505050565b60006102df6102da846104ae565b610451565b905080838252602082019050828560208602820111156102fe57600080fd5b60005b8581101561032e578161031488826103a1565b845260208401935060208301925050600181019050610301565b5050509392505050565b600081359050610347816105c8565b92915050565b600082601f83011261035e57600080fd5b813561036e848260208601610260565b91505092915050565b600082601f83011261038857600080fd5b81356103988482602086016102cc565b91505092915050565b6000813590506103b0816105df565b92915050565b600080604083850312156103c957600080fd5b600083013567ffffffffffffffff8111156103e357600080fd5b6103ef8582860161034d565b925050602083013567ffffffffffffffff81111561040c57600080fd5b61041885828601610377565b9150509250929050565b600061042f6000836104da565b9150600082019050919050565b600061044782610422565b9150819050919050565b6000604051905081810181811067ffffffffffffffff8211171561047857610477610599565b5b8060405250919050565b600067ffffffffffffffff82111561049d5761049c610599565b5b602082029050602081019050919050565b600067ffffffffffffffff8211156104c9576104c8610599565b5b602082029050602081019050919050565b600081905092915050565b60006104f0826104f7565b9050919050565b600073ffffffffffffffffffffffffffffffffffffffff82169050919050565b6000819050919050565b600061052c82610517565b91507fffffffffffffffffffffffffffffffffffffffffffffffffffffffffffffffff82141561055f5761055e61056a565b5b600182019050919050565b7f4e487b7100000000000000000000000000000000000000000000000000000000600052601160045260246000fd5b7f4e487b7100000000000000000000000000000000000000000000000000000000600052604160045260246000fd5b6105d1816104e5565b81146105dc57600080fd5b50565b6105e881610517565b81146105f357600080fd5b5056fea26469706673582212202e3dc1306ca34d9caaf9c3b1f9f25ee68cc899621eeb48db5946b7bdede63dc664736f6c63430008000033",
  "linkReferences": {},
  "deployedLinkReferences": {}
}