{
  "_format": "hh-sol-artifact-1",
  "contractName": "MyTokenMock",
  "sourceName": "contracts/mocks/MyTokenMock.sol",
  "abi": [
    {
      "inputs": [
        {
          "internalType": "uint256",
          "name": "initialBalance",
          "type": "uint256"
        }
      ],
      "stateMutability": "payable",
      "type": "constructor"
    },
    {
      "anonymous": false,
      "inputs": [
        {
          "indexed": true,
          "internalType": "address",
          "name": "owner",
          "type": "address"
        },
        {
          "indexed": true,
          "internalType": "address",
          "name": "spender",
          "type": "address"
        },
        {
          "indexed": false,
          "internalType": "uint256",
          "name": "value",
          "type": "uint256"
        }
      ],
      "name": "Approval",
      "type": "event"
    },
    {
      "anonymous": false,
      "inputs": [
        {
          "indexed": true,
          "internalType": "address",
          "name": "holder",
          "type": "address"
        }
      ],
      "name": "HolderAdded",
      "type": "event"
    },
    {
      "anonymous": false,
      "inputs": [
        {
          "indexed": true,
          "internalType": "address",
          "name": "holder",
          "type": "address"
        }
      ],
      "name": "HolderRemoved",
      "type": "event"
    },
    {
      "anonymous": false,
      "inputs": [
        {
          "indexed": true,
          "internalType": "address",
          "name": "from",
          "type": "address"
        },
        {
          "indexed": true,
          "internalType": "address",
          "name": "to",
          "type": "address"
        },
        {
          "indexed": false,
          "internalType": "uint256",
          "name": "value",
          "type": "uint256"
        }
      ],
      "name": "Transfer",
      "type": "event"
    },
    {
      "inputs": [
        {
          "internalType": "address",
          "name": "owner",
          "type": "address"
        },
        {
          "internalType": "address",
          "name": "spender",
          "type": "address"
        }
      ],
      "name": "allowance",
      "outputs": [
        {
          "internalType": "uint256",
          "name": "",
          "type": "uint256"
        }
      ],
      "stateMutability": "view",
      "type": "function"
    },
    {
      "inputs": [
        {
          "internalType": "address",
          "name": "spender",
          "type": "address"
        },
        {
          "internalType": "uint256",
          "name": "amount",
          "type": "uint256"
        }
      ],
      "name": "approve",
      "outputs": [
        {
          "internalType": "bool",
          "name": "",
          "type": "bool"
        }
      ],
      "stateMutability": "nonpayable",
      "type": "function"
    },
    {
      "inputs": [
        {
          "internalType": "address",
          "name": "owner",
          "type": "address"
        },
        {
          "internalType": "address",
          "name": "spender",
          "type": "address"
        },
        {
          "internalType": "uint256",
          "name": "value",
          "type": "uint256"
        }
      ],
      "name": "approveInternal",
      "outputs": [],
      "stateMutability": "nonpayable",
      "type": "function"
    },
    {
      "inputs": [
        {
          "internalType": "address",
          "name": "account",
          "type": "address"
        }
      ],
      "name": "balanceOf",
      "outputs": [
        {
          "internalType": "uint256",
          "name": "",
          "type": "uint256"
        }
      ],
      "stateMutability": "view",
      "type": "function"
    },
    {
      "inputs": [
        {
          "internalType": "address",
          "name": "account",
          "type": "address"
        },
        {
          "internalType": "uint256",
          "name": "amount",
          "type": "uint256"
        }
      ],
      "name": "burn",
      "outputs": [],
      "stateMutability": "nonpayable",
      "type": "function"
    },
    {
      "inputs": [],
      "name": "decimals",
      "outputs": [
        {
          "internalType": "uint8",
          "name": "",
          "type": "uint8"
        }
      ],
      "stateMutability": "view",
      "type": "function"
    },
    {
      "inputs": [
        {
          "internalType": "address",
          "name": "spender",
          "type": "address"
        },
        {
          "internalType": "uint256",
          "name": "subtractedValue",
          "type": "uint256"
        }
      ],
      "name": "decreaseAllowance",
      "outputs": [
        {
          "internalType": "bool",
          "name": "",
          "type": "bool"
        }
      ],
      "stateMutability": "nonpayable",
      "type": "function"
    },
    {
      "inputs": [],
      "name": "getHolderAmount",
      "outputs": [
        {
          "internalType": "uint256",
          "name": "",
          "type": "uint256"
        }
      ],
      "stateMutability": "view",
      "type": "function"
    },
    {
      "inputs": [],
      "name": "getHolders",
      "outputs": [
        {
          "internalType": "address[]",
          "name": "",
          "type": "address[]"
        }
      ],
      "stateMutability": "view",
      "type": "function"
    },
    {
      "inputs": [],
      "name": "getOwner",
      "outputs": [
        {
          "internalType": "address",
          "name": "",
          "type": "address"
        }
      ],
      "stateMutability": "view",
      "type": "function"
    },
    {
      "inputs": [
        {
          "internalType": "uint256",
          "name": "itemsToGet",
          "type": "uint256"
        },
        {
          "internalType": "uint256",
          "name": "offset",
          "type": "uint256"
        }
      ],
      "name": "getPagedHolders",
      "outputs": [
        {
          "internalType": "address[]",
          "name": "",
          "type": "address[]"
        }
      ],
      "stateMutability": "view",
      "type": "function"
    },
    {
      "inputs": [
        {
          "internalType": "address",
          "name": "spender",
          "type": "address"
        },
        {
          "internalType": "uint256",
          "name": "addedValue",
          "type": "uint256"
        }
      ],
      "name": "increaseAllowance",
      "outputs": [
        {
          "internalType": "bool",
          "name": "",
          "type": "bool"
        }
      ],
      "stateMutability": "nonpayable",
      "type": "function"
    },
    {
      "inputs": [
        {
          "internalType": "address",
          "name": "account",
          "type": "address"
        },
        {
          "internalType": "uint256",
          "name": "amount",
          "type": "uint256"
        }
      ],
      "name": "mint",
      "outputs": [],
      "stateMutability": "nonpayable",
      "type": "function"
    },
    {
      "inputs": [
        {
          "internalType": "address[]",
          "name": "accounts",
          "type": "address[]"
        },
        {
          "internalType": "uint256[]",
          "name": "amounts",
          "type": "uint256[]"
        }
      ],
      "name": "mintMany",
      "outputs": [],
      "stateMutability": "nonpayable",
      "type": "function"
    },
    {
      "inputs": [],
      "name": "name",
      "outputs": [
        {
          "internalType": "string",
          "name": "",
          "type": "string"
        }
      ],
      "stateMutability": "view",
      "type": "function"
    },
    {
      "inputs": [],
      "name": "symbol",
      "outputs": [
        {
          "internalType": "string",
          "name": "",
          "type": "string"
        }
      ],
      "stateMutability": "view",
      "type": "function"
    },
    {
      "inputs": [],
      "name": "totalSupply",
      "outputs": [
        {
          "internalType": "uint256",
          "name": "",
          "type": "uint256"
        }
      ],
      "stateMutability": "view",
      "type": "function"
    },
    {
      "inputs": [
        {
          "internalType": "address",
          "name": "recipient",
          "type": "address"
        },
        {
          "internalType": "uint256",
          "name": "amount",
          "type": "uint256"
        }
      ],
      "name": "transfer",
      "outputs": [
        {
          "internalType": "bool",
          "name": "",
          "type": "bool"
        }
      ],
      "stateMutability": "nonpayable",
      "type": "function"
    },
    {
      "inputs": [
        {
          "internalType": "address",
          "name": "sender",
          "type": "address"
        },
        {
          "internalType": "address",
          "name": "recipient",
          "type": "address"
        },
        {
          "internalType": "uint256",
          "name": "amount",
          "type": "uint256"
        }
      ],
      "name": "transferFrom",
      "outputs": [
        {
          "internalType": "bool",
          "name": "",
          "type": "bool"
        }
      ],
      "stateMutability": "nonpayable",
      "type": "function"
    },
    {
      "inputs": [
        {
          "internalType": "address",
          "name": "from",
          "type": "address"
        },
        {
          "internalType": "address",
          "name": "to",
          "type": "address"
        },
        {
          "internalType": "uint256",
          "name": "value",
          "type": "uint256"
        }
      ],
      "name": "transferInternal",
      "outputs": [],
      "stateMutability": "nonpayable",
      "type": "function"
    }
  ],
  "bytecode": "0x608060405260405162002fd338038062002fd38339818101604052810190620000299190620007f9565b806040518060400160405280600981526020017f536f6c61726d696e6500000000000000000000000000000000000000000000008152506040518060400160405280600281526020017f534d00000000000000000000000000000000000000000000000000000000000081525081818160039080519060200190620000b092919062000732565b508060049080519060200190620000c992919062000732565b505050620000ed620000e06200016760201b60201c565b846200016f60201b60201c565b6200010d620001016200016760201b60201c565b620002e860201b60201c565b6200011d6200016760201b60201c565b600760006101000a81548173ffffffffffffffffffffffffffffffffffffffff021916908373ffffffffffffffffffffffffffffffffffffffff1602179055505050505062000a18565b600033905090565b600073ffffffffffffffffffffffffffffffffffffffff168273ffffffffffffffffffffffffffffffffffffffff161415620001e2576040517f08c379a0000000000000000000000000000000000000000000000000000000008152600401620001d99062000878565b60405180910390fd5b620001f6600083836200039360201b60201c565b80600260008282546200020a9190620008c8565b92505081905550806000808473ffffffffffffffffffffffffffffffffffffffff1673ffffffffffffffffffffffffffffffffffffffff1681526020019081526020016000206000828254620002619190620008c8565b925050819055508173ffffffffffffffffffffffffffffffffffffffff16600073ffffffffffffffffffffffffffffffffffffffff167fddf252ad1be2c89b69c2b068fc378daa952ba7f163c4a11628f55a4df523b3ef83604051620002c891906200089a565b60405180910390a3620002e4600083836200039860201b60201c565b5050565b62000303816005620003e560201b62000be31790919060201c565b156200034d578073ffffffffffffffffffffffffffffffffffffffff167f9894d458cf29e8bc4eb7e591bac54b31dc90125dfa852474419972ab4347dd1260405160405180910390a25b8073ffffffffffffffffffffffffffffffffffffffff167f9894d458cf29e8bc4eb7e591bac54b31dc90125dfa852474419972ab4347dd1260405160405180910390a250565b505050565b6000811115620003b457620003b382620002e860201b60201c565b5b6000620003c7846200041d60201b60201c565b1415620003e057620003df836200046560201b60201c565b5b505050565b600062000415836000018373ffffffffffffffffffffffffffffffffffffffff1660001b620004cd60201b60201c565b905092915050565b60008060008373ffffffffffffffffffffffffffffffffffffffff1673ffffffffffffffffffffffffffffffffffffffff168152602001908152602001600020549050919050565b620004808160056200054760201b62000c131790919060201c565b15620004ca578073ffffffffffffffffffffffffffffffffffffffff167fd9bc583d1445615d8b795b7374f03ff79efa83b6359a91331efd95e4cf023ab660405160405180910390a25b50565b6000620004e183836200057f60201b60201c565b6200053c57826000018290806001815401808255809150506001900390600052602060002001600090919091909150558260000180549050836001016000848152602001908152602001600020819055506001905062000541565b600090505b92915050565b600062000577836000018373ffffffffffffffffffffffffffffffffffffffff1660001b620005a260201b60201c565b905092915050565b600080836001016000848152602001908152602001600020541415905092915050565b6000808360010160008481526020019081526020016000205490506000811462000726576000600182620005d7919062000925565b9050600060018660000180549050620005f1919062000925565b9050818114620006af5760008660000182815481106200063a577f4e487b7100000000000000000000000000000000000000000000000000000000600052603260045260246000fd5b906000526020600020015490508087600001848154811062000685577f4e487b7100000000000000000000000000000000000000000000000000000000600052603260045260246000fd5b90600052602060002001819055508387600101600083815260200190815260200160002081905550505b85600001805480620006ea577f4e487b7100000000000000000000000000000000000000000000000000000000600052603160045260246000fd5b6001900381819060005260206000200160009055905585600101600086815260200190815260200160002060009055600193505050506200072c565b60009150505b92915050565b82805462000740906200096a565b90600052602060002090601f016020900481019282620007645760008555620007b0565b82601f106200077f57805160ff1916838001178555620007b0565b82800160010185558215620007b0579182015b82811115620007af57825182559160200191906001019062000792565b5b509050620007bf9190620007c3565b5090565b5b80821115620007de576000816000905550600101620007c4565b5090565b600081519050620007f381620009fe565b92915050565b6000602082840312156200080c57600080fd5b60006200081c84828501620007e2565b91505092915050565b600062000834601f83620008b7565b91507f45524332303a206d696e7420746f20746865207a65726f2061646472657373006000830152602082019050919050565b620008728162000960565b82525050565b60006020820190508181036000830152620008938162000825565b9050919050565b6000602082019050620008b1600083018462000867565b92915050565b600082825260208201905092915050565b6000620008d58262000960565b9150620008e28362000960565b9250827fffffffffffffffffffffffffffffffffffffffffffffffffffffffffffffffff038211156200091a5762000919620009a0565b5b828201905092915050565b6000620009328262000960565b91506200093f8362000960565b925082821015620009555762000954620009a0565b5b828203905092915050565b6000819050919050565b600060028204905060018216806200098357607f821691505b602082108114156200099a5762000999620009cf565b5b50919050565b7f4e487b7100000000000000000000000000000000000000000000000000000000600052601160045260246000fd5b7f4e487b7100000000000000000000000000000000000000000000000000000000600052602260045260246000fd5b62000a098162000960565b811462000a1557600080fd5b50565b6125ab8062000a286000396000f3fe608060405234801561001057600080fd5b506004361061012c5760003560e01c806356189cb4116100ad57806395d89b411161007157806395d89b41146103455780639dc29fac14610363578063a457c2d71461037f578063a9059cbb146103af578063dd62ed3e146103df5761012c565b806356189cb41461028d5780635fe8e7cc146102a957806370a08231146102c757806371a8d605146102f7578063893d20e8146103275761012c565b80632b013f78116100f45780632b013f78146101e9578063313ce5671461020757806339509351146102255780634029a3ce1461025557806340c10f19146102715761012c565b806306fdde0314610131578063095ea7b31461014f57806318160ddd1461017f578063222f5be01461019d57806323b872dd146101b9575b600080fd5b61013961040f565b6040516101469190612086565b60405180910390f35b61016960048036038101906101649190611a3a565b6104a1565b604051610176919061206b565b60405180910390f35b6101876104bf565b6040516101949190612208565b60405180910390f35b6101b760048036038101906101b291906119eb565b6104c9565b005b6101d360048036038101906101ce91906119eb565b6104d9565b6040516101e0919061206b565b60405180910390f35b6101f16105d1565b6040516101fe9190612208565b60405180910390f35b61020f6105e2565b60405161021c9190612223565b60405180910390f35b61023f600480360381019061023a9190611a3a565b6105eb565b60405161024c919061206b565b60405180910390f35b61026f600480360381019061026a9190611a76565b610697565b005b61028b60048036038101906102869190611a3a565b610745565b005b6102a760048036038101906102a291906119eb565b61075f565b005b6102b161076f565b6040516102be9190612049565b60405180910390f35b6102e160048036038101906102dc9190611986565b610780565b6040516102ee9190612208565b60405180910390f35b610311600480360381019061030c9190611ae2565b6107c8565b60405161031e9190612049565b60405180910390f35b61032f610989565b60405161033c919061202e565b60405180910390f35b61034d6109b3565b60405161035a9190612086565b60405180910390f35b61037d60048036038101906103789190611a3a565b610a45565b005b61039960048036038101906103949190611a3a565b610a53565b6040516103a6919061206b565b60405180910390f35b6103c960048036038101906103c49190611a3a565b610b3e565b6040516103d6919061206b565b60405180910390f35b6103f960048036038101906103f491906119af565b610b5c565b6040516104069190612208565b60405180910390f35b60606003805461041e9061242e565b80601f016020809104026020016040519081016040528092919081815260200182805461044a9061242e565b80156104975780601f1061046c57610100808354040283529160200191610497565b820191906000526020600020905b81548152906001019060200180831161047a57829003601f168201915b5050505050905090565b60006104b56104ae610c43565b8484610c4b565b6001905092915050565b6000600254905090565b6104d4838383610e16565b505050565b60006104e6848484610e16565b6000600160008673ffffffffffffffffffffffffffffffffffffffff1673ffffffffffffffffffffffffffffffffffffffff1681526020019081526020016000206000610531610c43565b73ffffffffffffffffffffffffffffffffffffffff1673ffffffffffffffffffffffffffffffffffffffff168152602001908152602001600020549050828110156105b1576040517f08c379a00000000000000000000000000000000000000000000000000000000081526004016105a890612128565b60405180910390fd5b6105c5856105bd610c43565b858403610c4b565b60019150509392505050565b60006105dd6005611097565b905090565b60006012905090565b600061068d6105f8610c43565b848460016000610606610c43565b73ffffffffffffffffffffffffffffffffffffffff1673ffffffffffffffffffffffffffffffffffffffff16815260200190815260200160002060008873ffffffffffffffffffffffffffffffffffffffff1673ffffffffffffffffffffffffffffffffffffffff16815260200190815260200160002054610688919061231c565b610c4b565b6001905092915050565b60005b82518110156107405761072d8382815181106106df577f4e487b7100000000000000000000000000000000000000000000000000000000600052603260045260246000fd5b6020026020010151838381518110610720577f4e487b7100000000000000000000000000000000000000000000000000000000600052603260045260246000fd5b6020026020010151610745565b808061073890612460565b91505061069a565b505050565b61074f82826110ac565b61075b6000838361120c565b5050565b61076a838383610c4b565b505050565b606061077b600561123f565b905090565b60008060008373ffffffffffffffffffffffffffffffffffffffff1673ffffffffffffffffffffffffffffffffffffffff168152602001908152602001600020549050919050565b606060006107d66005611097565b905082811161081a576040517f08c379a000000000000000000000000000000000000000000000000000000000815260040161081190612148565b60405180910390fd5b6000818486610829919061231c565b116108345784610841565b83826108409190612372565b5b905060008167ffffffffffffffff811115610885577f4e487b7100000000000000000000000000000000000000000000000000000000600052604160045260246000fd5b6040519080825280602002602001820160405280156108b35781602001602082028036833780820191505090505b50905060005b86811080156108d257508386826108d0919061231c565b105b1561097c576108f686826108e6919061231c565b600561126090919063ffffffff16565b82828151811061092f577f4e487b7100000000000000000000000000000000000000000000000000000000600052603260045260246000fd5b602002602001019073ffffffffffffffffffffffffffffffffffffffff16908173ffffffffffffffffffffffffffffffffffffffff1681525050808061097490612460565b9150506108b9565b5080935050505092915050565b6000600760009054906101000a900473ffffffffffffffffffffffffffffffffffffffff16905090565b6060600480546109c29061242e565b80601f01602080910402602001604051908101604052809291908181526020018280546109ee9061242e565b8015610a3b5780601f10610a1057610100808354040283529160200191610a3b565b820191906000526020600020905b815481529060010190602001808311610a1e57829003601f168201915b5050505050905090565b610a4f828261127a565b5050565b60008060016000610a62610c43565b73ffffffffffffffffffffffffffffffffffffffff1673ffffffffffffffffffffffffffffffffffffffff16815260200190815260200160002060008573ffffffffffffffffffffffffffffffffffffffff1673ffffffffffffffffffffffffffffffffffffffff16815260200190815260200160002054905082811015610b1f576040517f08c379a0000000000000000000000000000000000000000000000000000000008152600401610b16906121c8565b60405180910390fd5b610b33610b2a610c43565b85858403610c4b565b600191505092915050565b6000610b52610b4b610c43565b8484610e16565b6001905092915050565b6000600160008473ffffffffffffffffffffffffffffffffffffffff1673ffffffffffffffffffffffffffffffffffffffff16815260200190815260200160002060008373ffffffffffffffffffffffffffffffffffffffff1673ffffffffffffffffffffffffffffffffffffffff16815260200190815260200160002054905092915050565b6000610c0b836000018373ffffffffffffffffffffffffffffffffffffffff1660001b611451565b905092915050565b6000610c3b836000018373ffffffffffffffffffffffffffffffffffffffff1660001b6114c1565b905092915050565b600033905090565b600073ffffffffffffffffffffffffffffffffffffffff168373ffffffffffffffffffffffffffffffffffffffff161415610cbb576040517f08c379a0000000000000000000000000000000000000000000000000000000008152600401610cb2906121a8565b60405180910390fd5b600073ffffffffffffffffffffffffffffffffffffffff168273ffffffffffffffffffffffffffffffffffffffff161415610d2b576040517f08c379a0000000000000000000000000000000000000000000000000000000008152600401610d22906120e8565b60405180910390fd5b80600160008573ffffffffffffffffffffffffffffffffffffffff1673ffffffffffffffffffffffffffffffffffffffff16815260200190815260200160002060008473ffffffffffffffffffffffffffffffffffffffff1673ffffffffffffffffffffffffffffffffffffffff168152602001908152602001600020819055508173ffffffffffffffffffffffffffffffffffffffff168373ffffffffffffffffffffffffffffffffffffffff167f8c5be1e5ebec7d5bd14f71427d1e84f3dd0314c0f7b2291e5b200ac8c7c3b92583604051610e099190612208565b60405180910390a3505050565b600073ffffffffffffffffffffffffffffffffffffffff168373ffffffffffffffffffffffffffffffffffffffff161415610e86576040517f08c379a0000000000000000000000000000000000000000000000000000000008152600401610e7d90612188565b60405180910390fd5b600073ffffffffffffffffffffffffffffffffffffffff168273ffffffffffffffffffffffffffffffffffffffff161415610ef6576040517f08c379a0000000000000000000000000000000000000000000000000000000008152600401610eed906120a8565b60405180910390fd5b610f01838383611647565b60008060008573ffffffffffffffffffffffffffffffffffffffff1673ffffffffffffffffffffffffffffffffffffffff16815260200190815260200160002054905081811015610f87576040517f08c379a0000000000000000000000000000000000000000000000000000000008152600401610f7e90612108565b60405180910390fd5b8181036000808673ffffffffffffffffffffffffffffffffffffffff1673ffffffffffffffffffffffffffffffffffffffff16815260200190815260200160002081905550816000808573ffffffffffffffffffffffffffffffffffffffff1673ffffffffffffffffffffffffffffffffffffffff168152602001908152602001600020600082825461101a919061231c565b925050819055508273ffffffffffffffffffffffffffffffffffffffff168473ffffffffffffffffffffffffffffffffffffffff167fddf252ad1be2c89b69c2b068fc378daa952ba7f163c4a11628f55a4df523b3ef8460405161107e9190612208565b60405180910390a361109184848461120c565b50505050565b60006110a58260000161164c565b9050919050565b600073ffffffffffffffffffffffffffffffffffffffff168273ffffffffffffffffffffffffffffffffffffffff16141561111c576040517f08c379a0000000000000000000000000000000000000000000000000000000008152600401611113906121e8565b60405180910390fd5b61112860008383611647565b806002600082825461113a919061231c565b92505081905550806000808473ffffffffffffffffffffffffffffffffffffffff1673ffffffffffffffffffffffffffffffffffffffff168152602001908152602001600020600082825461118f919061231c565b925050819055508173ffffffffffffffffffffffffffffffffffffffff16600073ffffffffffffffffffffffffffffffffffffffff167fddf252ad1be2c89b69c2b068fc378daa952ba7f163c4a11628f55a4df523b3ef836040516111f49190612208565b60405180910390a36112086000838361120c565b5050565b600081111561121f5761121e8261165d565b5b600061122a84610780565b141561123a5761123983611700565b5b505050565b6060600061124f83600001611760565b905060608190508092505050919050565b600061126f83600001836117bc565b60001c905092915050565b600073ffffffffffffffffffffffffffffffffffffffff168273ffffffffffffffffffffffffffffffffffffffff1614156112ea576040517f08c379a00000000000000000000000000000000000000000000000000000000081526004016112e190612168565b60405180910390fd5b6112f682600083611647565b60008060008473ffffffffffffffffffffffffffffffffffffffff1673ffffffffffffffffffffffffffffffffffffffff1681526020019081526020016000205490508181101561137c576040517f08c379a0000000000000000000000000000000000000000000000000000000008152600401611373906120c8565b60405180910390fd5b8181036000808573ffffffffffffffffffffffffffffffffffffffff1673ffffffffffffffffffffffffffffffffffffffff1681526020019081526020016000208190555081600260008282546113d39190612372565b92505081905550600073ffffffffffffffffffffffffffffffffffffffff168373ffffffffffffffffffffffffffffffffffffffff167fddf252ad1be2c89b69c2b068fc378daa952ba7f163c4a11628f55a4df523b3ef846040516114389190612208565b60405180910390a361144c8360008461120c565b505050565b600061145d838361180d565b6114b65782600001829080600181540180825580915050600190039060005260206000200160009091909190915055826000018054905083600101600084815260200190815260200160002081905550600190506114bb565b600090505b92915050565b6000808360010160008481526020019081526020016000205490506000811461163b5760006001826114f39190612372565b905060006001866000018054905061150b9190612372565b90508181146115c6576000866000018281548110611552577f4e487b7100000000000000000000000000000000000000000000000000000000600052603260045260246000fd5b906000526020600020015490508087600001848154811061159c577f4e487b7100000000000000000000000000000000000000000000000000000000600052603260045260246000fd5b90600052602060002001819055508387600101600083815260200190815260200160002081905550505b85600001805480611600577f4e487b7100000000000000000000000000000000000000000000000000000000600052603160045260246000fd5b600190038181906000526020600020016000905590558560010160008681526020019081526020016000206000905560019350505050611641565b60009150505b92915050565b505050565b600081600001805490509050919050565b611671816005610be390919063ffffffff16565b156116ba578073ffffffffffffffffffffffffffffffffffffffff167f9894d458cf29e8bc4eb7e591bac54b31dc90125dfa852474419972ab4347dd1260405160405180910390a25b8073ffffffffffffffffffffffffffffffffffffffff167f9894d458cf29e8bc4eb7e591bac54b31dc90125dfa852474419972ab4347dd1260405160405180910390a250565b611714816005610c1390919063ffffffff16565b1561175d578073ffffffffffffffffffffffffffffffffffffffff167fd9bc583d1445615d8b795b7374f03ff79efa83b6359a91331efd95e4cf023ab660405160405180910390a25b50565b6060816000018054806020026020016040519081016040528092919081815260200182805480156117b057602002820191906000526020600020905b81548152602001906001019080831161179c575b50505050509050919050565b60008260000182815481106117fa577f4e487b7100000000000000000000000000000000000000000000000000000000600052603260045260246000fd5b9060005260206000200154905092915050565b600080836001016000848152602001908152602001600020541415905092915050565b600061184361183e8461226f565b61223e565b9050808382526020820190508285602086028201111561186257600080fd5b60005b8581101561189257816118788882611908565b845260208401935060208301925050600181019050611865565b5050509392505050565b60006118af6118aa8461229b565b61223e565b905080838252602082019050828560208602820111156118ce57600080fd5b60005b858110156118fe57816118e48882611971565b8452602084019350602083019250506001810190506118d1565b5050509392505050565b60008135905061191781612547565b92915050565b600082601f83011261192e57600080fd5b813561193e848260208601611830565b91505092915050565b600082601f83011261195857600080fd5b813561196884826020860161189c565b91505092915050565b6000813590506119808161255e565b92915050565b60006020828403121561199857600080fd5b60006119a684828501611908565b91505092915050565b600080604083850312156119c257600080fd5b60006119d085828601611908565b92505060206119e185828601611908565b9150509250929050565b600080600060608486031215611a0057600080fd5b6000611a0e86828701611908565b9350506020611a1f86828701611908565b9250506040611a3086828701611971565b9150509250925092565b60008060408385031215611a4d57600080fd5b6000611a5b85828601611908565b9250506020611a6c85828601611971565b9150509250929050565b60008060408385031215611a8957600080fd5b600083013567ffffffffffffffff811115611aa357600080fd5b611aaf8582860161191d565b925050602083013567ffffffffffffffff811115611acc57600080fd5b611ad885828601611947565b9150509250929050565b60008060408385031215611af557600080fd5b6000611b0385828601611971565b9250506020611b1485828601611971565b9150509250929050565b6000611b2a8383611b36565b60208301905092915050565b611b3f816123a6565b82525050565b611b4e816123a6565b82525050565b6000611b5f826122d7565b611b6981856122fa565b9350611b74836122c7565b8060005b83811015611ba5578151611b8c8882611b1e565b9750611b97836122ed565b925050600181019050611b78565b5085935050505092915050565b611bbb816123b8565b82525050565b6000611bcc826122e2565b611bd6818561230b565b9350611be68185602086016123fb565b611bef81612536565b840191505092915050565b6000611c0760238361230b565b91507f45524332303a207472616e7366657220746f20746865207a65726f206164647260008301527f65737300000000000000000000000000000000000000000000000000000000006020830152604082019050919050565b6000611c6d60228361230b565b91507f45524332303a206275726e20616d6f756e7420657863656564732062616c616e60008301527f63650000000000000000000000000000000000000000000000000000000000006020830152604082019050919050565b6000611cd360228361230b565b91507f45524332303a20617070726f766520746f20746865207a65726f20616464726560008301527f73730000000000000000000000000000000000000000000000000000000000006020830152604082019050919050565b6000611d3960268361230b565b91507f45524332303a207472616e7366657220616d6f756e742065786365656473206260008301527f616c616e636500000000000000000000000000000000000000000000000000006020830152604082019050919050565b6000611d9f60288361230b565b91507f45524332303a207472616e7366657220616d6f756e742065786365656473206160008301527f6c6c6f77616e63650000000000000000000000000000000000000000000000006020830152604082019050919050565b6000611e05600e8361230b565b91507f496e76616c6964206f66667365740000000000000000000000000000000000006000830152602082019050919050565b6000611e4560218361230b565b91507f45524332303a206275726e2066726f6d20746865207a65726f2061646472657360008301527f73000000000000000000000000000000000000000000000000000000000000006020830152604082019050919050565b6000611eab60258361230b565b91507f45524332303a207472616e736665722066726f6d20746865207a65726f20616460008301527f64726573730000000000000000000000000000000000000000000000000000006020830152604082019050919050565b6000611f1160248361230b565b91507f45524332303a20617070726f76652066726f6d20746865207a65726f2061646460008301527f72657373000000000000000000000000000000000000000000000000000000006020830152604082019050919050565b6000611f7760258361230b565b91507f45524332303a2064656372656173656420616c6c6f77616e63652062656c6f7760008301527f207a65726f0000000000000000000000000000000000000000000000000000006020830152604082019050919050565b6000611fdd601f8361230b565b91507f45524332303a206d696e7420746f20746865207a65726f2061646472657373006000830152602082019050919050565b612019816123e4565b82525050565b612028816123ee565b82525050565b60006020820190506120436000830184611b45565b92915050565b600060208201905081810360008301526120638184611b54565b905092915050565b60006020820190506120806000830184611bb2565b92915050565b600060208201905081810360008301526120a08184611bc1565b905092915050565b600060208201905081810360008301526120c181611bfa565b9050919050565b600060208201905081810360008301526120e181611c60565b9050919050565b6000602082019050818103600083015261210181611cc6565b9050919050565b6000602082019050818103600083015261212181611d2c565b9050919050565b6000602082019050818103600083015261214181611d92565b9050919050565b6000602082019050818103600083015261216181611df8565b9050919050565b6000602082019050818103600083015261218181611e38565b9050919050565b600060208201905081810360008301526121a181611e9e565b9050919050565b600060208201905081810360008301526121c181611f04565b9050919050565b600060208201905081810360008301526121e181611f6a565b9050919050565b6000602082019050818103600083015261220181611fd0565b9050919050565b600060208201905061221d6000830184612010565b92915050565b6000602082019050612238600083018461201f565b92915050565b6000604051905081810181811067ffffffffffffffff8211171561226557612264612507565b5b8060405250919050565b600067ffffffffffffffff82111561228a57612289612507565b5b602082029050602081019050919050565b600067ffffffffffffffff8211156122b6576122b5612507565b5b602082029050602081019050919050565b6000819050602082019050919050565b600081519050919050565b600081519050919050565b6000602082019050919050565b600082825260208201905092915050565b600082825260208201905092915050565b6000612327826123e4565b9150612332836123e4565b9250827fffffffffffffffffffffffffffffffffffffffffffffffffffffffffffffffff03821115612367576123666124a9565b5b828201905092915050565b600061237d826123e4565b9150612388836123e4565b92508282101561239b5761239a6124a9565b5b828203905092915050565b60006123b1826123c4565b9050919050565b60008115159050919050565b600073ffffffffffffffffffffffffffffffffffffffff82169050919050565b6000819050919050565b600060ff82169050919050565b60005b838110156124195780820151818401526020810190506123fe565b83811115612428576000848401525b50505050565b6000600282049050600182168061244657607f821691505b6020821081141561245a576124596124d8565b5b50919050565b600061246b826123e4565b91507fffffffffffffffffffffffffffffffffffffffffffffffffffffffffffffffff82141561249e5761249d6124a9565b5b600182019050919050565b7f4e487b7100000000000000000000000000000000000000000000000000000000600052601160045260246000fd5b7f4e487b7100000000000000000000000000000000000000000000000000000000600052602260045260246000fd5b7f4e487b7100000000000000000000000000000000000000000000000000000000600052604160045260246000fd5b6000601f19601f8301169050919050565b612550816123a6565b811461255b57600080fd5b50565b612567816123e4565b811461257257600080fd5b5056fea2646970667358221220ba54f61896eb16e12546431efea93eea93761a651b83ee7b795b43b45d977e2a64736f6c63430008000033",
  "linkReferences": {},
  "deployedLinkReferences": {}
}