{
  "_format": "hh-sol-artifact-1",
  "contractName": "MyTokenMock",
  "sourceName": "contracts/mocks/MyTokenMock.sol",
  "abi": [
    {
      "inputs": [
        {
          "internalType": "uint256",
          "name": "initialBalance",
          "type": "uint256"
        }
      ],
      "stateMutability": "payable",
      "type": "constructor"
    },
    {
      "anonymous": false,
      "inputs": [
        {
          "indexed": true,
          "internalType": "address",
          "name": "owner",
          "type": "address"
        },
        {
          "indexed": true,
          "internalType": "address",
          "name": "spender",
          "type": "address"
        },
        {
          "indexed": false,
          "internalType": "uint256",
          "name": "value",
          "type": "uint256"
        }
      ],
      "name": "Approval",
      "type": "event"
    },
    {
      "anonymous": false,
      "inputs": [
        {
          "indexed": true,
          "internalType": "address",
          "name": "holder",
          "type": "address"
        }
      ],
      "name": "HolderAdded",
      "type": "event"
    },
    {
      "anonymous": false,
      "inputs": [
        {
          "indexed": true,
          "internalType": "address",
          "name": "holder",
          "type": "address"
        }
      ],
      "name": "HolderRemoved",
      "type": "event"
    },
    {
      "anonymous": false,
      "inputs": [
        {
          "indexed": true,
          "internalType": "address",
          "name": "from",
          "type": "address"
        },
        {
          "indexed": true,
          "internalType": "address",
          "name": "to",
          "type": "address"
        },
        {
          "indexed": false,
          "internalType": "uint256",
          "name": "value",
          "type": "uint256"
        }
      ],
      "name": "Transfer",
      "type": "event"
    },
    {
      "inputs": [
        {
          "internalType": "address",
          "name": "owner",
          "type": "address"
        },
        {
          "internalType": "address",
          "name": "spender",
          "type": "address"
        }
      ],
      "name": "allowance",
      "outputs": [
        {
          "internalType": "uint256",
          "name": "",
          "type": "uint256"
        }
      ],
      "stateMutability": "view",
      "type": "function"
    },
    {
      "inputs": [
        {
          "internalType": "address",
          "name": "spender",
          "type": "address"
        },
        {
          "internalType": "uint256",
          "name": "amount",
          "type": "uint256"
        }
      ],
      "name": "approve",
      "outputs": [
        {
          "internalType": "bool",
          "name": "",
          "type": "bool"
        }
      ],
      "stateMutability": "nonpayable",
      "type": "function"
    },
    {
      "inputs": [
        {
          "internalType": "address",
          "name": "owner",
          "type": "address"
        },
        {
          "internalType": "address",
          "name": "spender",
          "type": "address"
        },
        {
          "internalType": "uint256",
          "name": "value",
          "type": "uint256"
        }
      ],
      "name": "approveInternal",
      "outputs": [],
      "stateMutability": "nonpayable",
      "type": "function"
    },
    {
      "inputs": [
        {
          "internalType": "address",
          "name": "account",
          "type": "address"
        }
      ],
      "name": "balanceOf",
      "outputs": [
        {
          "internalType": "uint256",
          "name": "",
          "type": "uint256"
        }
      ],
      "stateMutability": "view",
      "type": "function"
    },
    {
      "inputs": [
        {
          "internalType": "address",
          "name": "account",
          "type": "address"
        },
        {
          "internalType": "uint256",
          "name": "amount",
          "type": "uint256"
        }
      ],
      "name": "burn",
      "outputs": [],
      "stateMutability": "nonpayable",
      "type": "function"
    },
    {
      "inputs": [],
      "name": "decimals",
      "outputs": [
        {
          "internalType": "uint8",
          "name": "",
          "type": "uint8"
        }
      ],
      "stateMutability": "view",
      "type": "function"
    },
    {
      "inputs": [
        {
          "internalType": "address",
          "name": "spender",
          "type": "address"
        },
        {
          "internalType": "uint256",
          "name": "subtractedValue",
          "type": "uint256"
        }
      ],
      "name": "decreaseAllowance",
      "outputs": [
        {
          "internalType": "bool",
          "name": "",
          "type": "bool"
        }
      ],
      "stateMutability": "nonpayable",
      "type": "function"
    },
    {
      "inputs": [],
      "name": "getHolderAmount",
      "outputs": [
        {
          "internalType": "uint256",
          "name": "",
          "type": "uint256"
        }
      ],
      "stateMutability": "view",
      "type": "function"
    },
    {
      "inputs": [],
      "name": "getHolders",
      "outputs": [
        {
          "internalType": "address[]",
          "name": "",
          "type": "address[]"
        }
      ],
      "stateMutability": "view",
      "type": "function"
    },
    {
      "inputs": [],
      "name": "getOwner",
      "outputs": [
        {
          "internalType": "address",
          "name": "",
          "type": "address"
        }
      ],
      "stateMutability": "view",
      "type": "function"
    },
    {
      "inputs": [
        {
          "internalType": "uint256",
          "name": "itemsToGet",
          "type": "uint256"
        },
        {
          "internalType": "uint256",
          "name": "offset",
          "type": "uint256"
        }
      ],
      "name": "getPagedHolders",
      "outputs": [
        {
          "internalType": "address[]",
          "name": "",
          "type": "address[]"
        }
      ],
      "stateMutability": "view",
      "type": "function"
    },
    {
      "inputs": [
        {
          "internalType": "address",
          "name": "spender",
          "type": "address"
        },
        {
          "internalType": "uint256",
          "name": "addedValue",
          "type": "uint256"
        }
      ],
      "name": "increaseAllowance",
      "outputs": [
        {
          "internalType": "bool",
          "name": "",
          "type": "bool"
        }
      ],
      "stateMutability": "nonpayable",
      "type": "function"
    },
    {
      "inputs": [
        {
          "internalType": "address",
          "name": "account",
          "type": "address"
        },
        {
          "internalType": "uint256",
          "name": "amount",
          "type": "uint256"
        }
      ],
      "name": "mint",
      "outputs": [],
      "stateMutability": "nonpayable",
      "type": "function"
    },
    {
      "inputs": [
        {
          "internalType": "address[]",
          "name": "accounts",
          "type": "address[]"
        },
        {
          "internalType": "uint256[]",
          "name": "amounts",
          "type": "uint256[]"
        }
      ],
      "name": "mintMany",
      "outputs": [],
      "stateMutability": "nonpayable",
      "type": "function"
    },
    {
      "inputs": [],
      "name": "name",
      "outputs": [
        {
          "internalType": "string",
          "name": "",
          "type": "string"
        }
      ],
      "stateMutability": "view",
      "type": "function"
    },
    {
      "inputs": [],
      "name": "symbol",
      "outputs": [
        {
          "internalType": "string",
          "name": "",
          "type": "string"
        }
      ],
      "stateMutability": "view",
      "type": "function"
    },
    {
      "inputs": [],
      "name": "totalSupply",
      "outputs": [
        {
          "internalType": "uint256",
          "name": "",
          "type": "uint256"
        }
      ],
      "stateMutability": "view",
      "type": "function"
    },
    {
      "inputs": [
        {
          "internalType": "address",
          "name": "recipient",
          "type": "address"
        },
        {
          "internalType": "uint256",
          "name": "amount",
          "type": "uint256"
        }
      ],
      "name": "transfer",
      "outputs": [
        {
          "internalType": "bool",
          "name": "",
          "type": "bool"
        }
      ],
      "stateMutability": "nonpayable",
      "type": "function"
    },
    {
      "inputs": [
        {
          "internalType": "address",
          "name": "sender",
          "type": "address"
        },
        {
          "internalType": "address",
          "name": "recipient",
          "type": "address"
        },
        {
          "internalType": "uint256",
          "name": "amount",
          "type": "uint256"
        }
      ],
      "name": "transferFrom",
      "outputs": [
        {
          "internalType": "bool",
          "name": "",
          "type": "bool"
        }
      ],
      "stateMutability": "nonpayable",
      "type": "function"
    },
    {
      "inputs": [
        {
          "internalType": "address",
          "name": "from",
          "type": "address"
        },
        {
          "internalType": "address",
          "name": "to",
          "type": "address"
        },
        {
          "internalType": "uint256",
          "name": "value",
          "type": "uint256"
        }
      ],
      "name": "transferInternal",
      "outputs": [],
      "stateMutability": "nonpayable",
      "type": "function"
    }
  ],
  "bytecode": "0x608060405260405162002fc738038062002fc78339818101604052810190620000299190620007f9565b806040518060400160405280600981526020017f536f6c61726d696e6500000000000000000000000000000000000000000000008152506040518060400160405280600281526020017f534d00000000000000000000000000000000000000000000000000000000000081525081818160039080519060200190620000b092919062000732565b508060049080519060200190620000c992919062000732565b505050620000ed620000e06200016760201b60201c565b846200016f60201b60201c565b6200010d620001016200016760201b60201c565b620002e860201b60201c565b6200011d6200016760201b60201c565b600760006101000a81548173ffffffffffffffffffffffffffffffffffffffff021916908373ffffffffffffffffffffffffffffffffffffffff1602179055505050505062000a18565b600033905090565b600073ffffffffffffffffffffffffffffffffffffffff168273ffffffffffffffffffffffffffffffffffffffff161415620001e2576040517f08c379a0000000000000000000000000000000000000000000000000000000008152600401620001d99062000878565b60405180910390fd5b620001f6600083836200039360201b60201c565b80600260008282546200020a9190620008c8565b92505081905550806000808473ffffffffffffffffffffffffffffffffffffffff1673ffffffffffffffffffffffffffffffffffffffff1681526020019081526020016000206000828254620002619190620008c8565b925050819055508173ffffffffffffffffffffffffffffffffffffffff16600073ffffffffffffffffffffffffffffffffffffffff167fddf252ad1be2c89b69c2b068fc378daa952ba7f163c4a11628f55a4df523b3ef83604051620002c891906200089a565b60405180910390a3620002e4600083836200039860201b60201c565b5050565b62000303816005620003e560201b62000bd71790919060201c565b156200034d578073ffffffffffffffffffffffffffffffffffffffff167f9894d458cf29e8bc4eb7e591bac54b31dc90125dfa852474419972ab4347dd1260405160405180910390a25b8073ffffffffffffffffffffffffffffffffffffffff167f9894d458cf29e8bc4eb7e591bac54b31dc90125dfa852474419972ab4347dd1260405160405180910390a250565b505050565b6000811115620003b457620003b382620002e860201b60201c565b5b6000620003c7846200041d60201b60201c565b1415620003e057620003df836200046560201b60201c565b5b505050565b600062000415836000018373ffffffffffffffffffffffffffffffffffffffff1660001b620004cd60201b60201c565b905092915050565b60008060008373ffffffffffffffffffffffffffffffffffffffff1673ffffffffffffffffffffffffffffffffffffffff168152602001908152602001600020549050919050565b620004808160056200054760201b62000c071790919060201c565b15620004ca578073ffffffffffffffffffffffffffffffffffffffff167fd9bc583d1445615d8b795b7374f03ff79efa83b6359a91331efd95e4cf023ab660405160405180910390a25b50565b6000620004e183836200057f60201b60201c565b6200053c57826000018290806001815401808255809150506001900390600052602060002001600090919091909150558260000180549050836001016000848152602001908152602001600020819055506001905062000541565b600090505b92915050565b600062000577836000018373ffffffffffffffffffffffffffffffffffffffff1660001b620005a260201b60201c565b905092915050565b600080836001016000848152602001908152602001600020541415905092915050565b6000808360010160008481526020019081526020016000205490506000811462000726576000600182620005d7919062000925565b9050600060018660000180549050620005f1919062000925565b9050818114620006af5760008660000182815481106200063a577f4e487b7100000000000000000000000000000000000000000000000000000000600052603260045260246000fd5b906000526020600020015490508087600001848154811062000685577f4e487b7100000000000000000000000000000000000000000000000000000000600052603260045260246000fd5b90600052602060002001819055508387600101600083815260200190815260200160002081905550505b85600001805480620006ea577f4e487b7100000000000000000000000000000000000000000000000000000000600052603160045260246000fd5b6001900381819060005260206000200160009055905585600101600086815260200190815260200160002060009055600193505050506200072c565b60009150505b92915050565b82805462000740906200096a565b90600052602060002090601f016020900481019282620007645760008555620007b0565b82601f106200077f57805160ff1916838001178555620007b0565b82800160010185558215620007b0579182015b82811115620007af57825182559160200191906001019062000792565b5b509050620007bf9190620007c3565b5090565b5b80821115620007de576000816000905550600101620007c4565b5090565b600081519050620007f381620009fe565b92915050565b6000602082840312156200080c57600080fd5b60006200081c84828501620007e2565b91505092915050565b600062000834601f83620008b7565b91507f45524332303a206d696e7420746f20746865207a65726f2061646472657373006000830152602082019050919050565b620008728162000960565b82525050565b60006020820190508181036000830152620008938162000825565b9050919050565b6000602082019050620008b1600083018462000867565b92915050565b600082825260208201905092915050565b6000620008d58262000960565b9150620008e28362000960565b9250827fffffffffffffffffffffffffffffffffffffffffffffffffffffffffffffffff038211156200091a5762000919620009a0565b5b828201905092915050565b6000620009328262000960565b91506200093f8362000960565b925082821015620009555762000954620009a0565b5b828203905092915050565b6000819050919050565b600060028204905060018216806200098357607f821691505b602082108114156200099a5762000999620009cf565b5b50919050565b7f4e487b7100000000000000000000000000000000000000000000000000000000600052601160045260246000fd5b7f4e487b7100000000000000000000000000000000000000000000000000000000600052602260045260246000fd5b62000a098162000960565b811462000a1557600080fd5b50565b61259f8062000a286000396000f3fe608060405234801561001057600080fd5b506004361061012c5760003560e01c806356189cb4116100ad57806395d89b411161007157806395d89b41146103455780639dc29fac14610363578063a457c2d71461037f578063a9059cbb146103af578063dd62ed3e146103df5761012c565b806356189cb41461028d5780635fe8e7cc146102a957806370a08231146102c757806371a8d605146102f7578063893d20e8146103275761012c565b80632b013f78116100f45780632b013f78146101e9578063313ce5671461020757806339509351146102255780634029a3ce1461025557806340c10f19146102715761012c565b806306fdde0314610131578063095ea7b31461014f57806318160ddd1461017f578063222f5be01461019d57806323b872dd146101b9575b600080fd5b61013961040f565b604051610146919061207a565b60405180910390f35b61016960048036038101906101649190611a2e565b6104a1565b604051610176919061205f565b60405180910390f35b6101876104bf565b60405161019491906121fc565b60405180910390f35b6101b760048036038101906101b291906119df565b6104c9565b005b6101d360048036038101906101ce91906119df565b6104d9565b6040516101e0919061205f565b60405180910390f35b6101f16105d1565b6040516101fe91906121fc565b60405180910390f35b61020f6105e2565b60405161021c9190612217565b60405180910390f35b61023f600480360381019061023a9190611a2e565b6105eb565b60405161024c919061205f565b60405180910390f35b61026f600480360381019061026a9190611a6a565b610697565b005b61028b60048036038101906102869190611a2e565b610745565b005b6102a760048036038101906102a291906119df565b610753565b005b6102b1610763565b6040516102be919061203d565b60405180910390f35b6102e160048036038101906102dc919061197a565b610774565b6040516102ee91906121fc565b60405180910390f35b610311600480360381019061030c9190611ad6565b6107bc565b60405161031e919061203d565b60405180910390f35b61032f61097d565b60405161033c9190612022565b60405180910390f35b61034d6109a7565b60405161035a919061207a565b60405180910390f35b61037d60048036038101906103789190611a2e565b610a39565b005b61039960048036038101906103949190611a2e565b610a47565b6040516103a6919061205f565b60405180910390f35b6103c960048036038101906103c49190611a2e565b610b32565b6040516103d6919061205f565b60405180910390f35b6103f960048036038101906103f491906119a3565b610b50565b60405161040691906121fc565b60405180910390f35b60606003805461041e90612422565b80601f016020809104026020016040519081016040528092919081815260200182805461044a90612422565b80156104975780601f1061046c57610100808354040283529160200191610497565b820191906000526020600020905b81548152906001019060200180831161047a57829003601f168201915b5050505050905090565b60006104b56104ae610c37565b8484610c3f565b6001905092915050565b6000600254905090565b6104d4838383610e0a565b505050565b60006104e6848484610e0a565b6000600160008673ffffffffffffffffffffffffffffffffffffffff1673ffffffffffffffffffffffffffffffffffffffff1681526020019081526020016000206000610531610c37565b73ffffffffffffffffffffffffffffffffffffffff1673ffffffffffffffffffffffffffffffffffffffff168152602001908152602001600020549050828110156105b1576040517f08c379a00000000000000000000000000000000000000000000000000000000081526004016105a89061211c565b60405180910390fd5b6105c5856105bd610c37565b858403610c3f565b60019150509392505050565b60006105dd600561108b565b905090565b60006012905090565b600061068d6105f8610c37565b848460016000610606610c37565b73ffffffffffffffffffffffffffffffffffffffff1673ffffffffffffffffffffffffffffffffffffffff16815260200190815260200160002060008873ffffffffffffffffffffffffffffffffffffffff1673ffffffffffffffffffffffffffffffffffffffff168152602001908152602001600020546106889190612310565b610c3f565b6001905092915050565b60005b82518110156107405761072d8382815181106106df577f4e487b7100000000000000000000000000000000000000000000000000000000600052603260045260246000fd5b6020026020010151838381518110610720577f4e487b7100000000000000000000000000000000000000000000000000000000600052603260045260246000fd5b60200260200101516110a0565b808061073890612454565b91505061069a565b505050565b61074f82826110a0565b5050565b61075e838383610c3f565b505050565b606061076f6005611200565b905090565b60008060008373ffffffffffffffffffffffffffffffffffffffff1673ffffffffffffffffffffffffffffffffffffffff168152602001908152602001600020549050919050565b606060006107ca600561108b565b905082811161080e576040517f08c379a00000000000000000000000000000000000000000000000000000000081526004016108059061213c565b60405180910390fd5b600081848661081d9190612310565b116108285784610835565b83826108349190612366565b5b905060008167ffffffffffffffff811115610879577f4e487b7100000000000000000000000000000000000000000000000000000000600052604160045260246000fd5b6040519080825280602002602001820160405280156108a75781602001602082028036833780820191505090505b50905060005b86811080156108c657508386826108c49190612310565b105b15610970576108ea86826108da9190612310565b600561122190919063ffffffff16565b828281518110610923577f4e487b7100000000000000000000000000000000000000000000000000000000600052603260045260246000fd5b602002602001019073ffffffffffffffffffffffffffffffffffffffff16908173ffffffffffffffffffffffffffffffffffffffff1681525050808061096890612454565b9150506108ad565b5080935050505092915050565b6000600760009054906101000a900473ffffffffffffffffffffffffffffffffffffffff16905090565b6060600480546109b690612422565b80601f01602080910402602001604051908101604052809291908181526020018280546109e290612422565b8015610a2f5780601f10610a0457610100808354040283529160200191610a2f565b820191906000526020600020905b815481529060010190602001808311610a1257829003601f168201915b5050505050905090565b610a43828261123b565b5050565b60008060016000610a56610c37565b73ffffffffffffffffffffffffffffffffffffffff1673ffffffffffffffffffffffffffffffffffffffff16815260200190815260200160002060008573ffffffffffffffffffffffffffffffffffffffff1673ffffffffffffffffffffffffffffffffffffffff16815260200190815260200160002054905082811015610b13576040517f08c379a0000000000000000000000000000000000000000000000000000000008152600401610b0a906121bc565b60405180910390fd5b610b27610b1e610c37565b85858403610c3f565b600191505092915050565b6000610b46610b3f610c37565b8484610e0a565b6001905092915050565b6000600160008473ffffffffffffffffffffffffffffffffffffffff1673ffffffffffffffffffffffffffffffffffffffff16815260200190815260200160002060008373ffffffffffffffffffffffffffffffffffffffff1673ffffffffffffffffffffffffffffffffffffffff16815260200190815260200160002054905092915050565b6000610bff836000018373ffffffffffffffffffffffffffffffffffffffff1660001b611412565b905092915050565b6000610c2f836000018373ffffffffffffffffffffffffffffffffffffffff1660001b611482565b905092915050565b600033905090565b600073ffffffffffffffffffffffffffffffffffffffff168373ffffffffffffffffffffffffffffffffffffffff161415610caf576040517f08c379a0000000000000000000000000000000000000000000000000000000008152600401610ca69061219c565b60405180910390fd5b600073ffffffffffffffffffffffffffffffffffffffff168273ffffffffffffffffffffffffffffffffffffffff161415610d1f576040517f08c379a0000000000000000000000000000000000000000000000000000000008152600401610d16906120dc565b60405180910390fd5b80600160008573ffffffffffffffffffffffffffffffffffffffff1673ffffffffffffffffffffffffffffffffffffffff16815260200190815260200160002060008473ffffffffffffffffffffffffffffffffffffffff1673ffffffffffffffffffffffffffffffffffffffff168152602001908152602001600020819055508173ffffffffffffffffffffffffffffffffffffffff168373ffffffffffffffffffffffffffffffffffffffff167f8c5be1e5ebec7d5bd14f71427d1e84f3dd0314c0f7b2291e5b200ac8c7c3b92583604051610dfd91906121fc565b60405180910390a3505050565b600073ffffffffffffffffffffffffffffffffffffffff168373ffffffffffffffffffffffffffffffffffffffff161415610e7a576040517f08c379a0000000000000000000000000000000000000000000000000000000008152600401610e719061217c565b60405180910390fd5b600073ffffffffffffffffffffffffffffffffffffffff168273ffffffffffffffffffffffffffffffffffffffff161415610eea576040517f08c379a0000000000000000000000000000000000000000000000000000000008152600401610ee19061209c565b60405180910390fd5b610ef5838383611608565b60008060008573ffffffffffffffffffffffffffffffffffffffff1673ffffffffffffffffffffffffffffffffffffffff16815260200190815260200160002054905081811015610f7b576040517f08c379a0000000000000000000000000000000000000000000000000000000008152600401610f72906120fc565b60405180910390fd5b8181036000808673ffffffffffffffffffffffffffffffffffffffff1673ffffffffffffffffffffffffffffffffffffffff16815260200190815260200160002081905550816000808573ffffffffffffffffffffffffffffffffffffffff1673ffffffffffffffffffffffffffffffffffffffff168152602001908152602001600020600082825461100e9190612310565b925050819055508273ffffffffffffffffffffffffffffffffffffffff168473ffffffffffffffffffffffffffffffffffffffff167fddf252ad1be2c89b69c2b068fc378daa952ba7f163c4a11628f55a4df523b3ef8460405161107291906121fc565b60405180910390a361108584848461160d565b50505050565b600061109982600001611640565b9050919050565b600073ffffffffffffffffffffffffffffffffffffffff168273ffffffffffffffffffffffffffffffffffffffff161415611110576040517f08c379a0000000000000000000000000000000000000000000000000000000008152600401611107906121dc565b60405180910390fd5b61111c60008383611608565b806002600082825461112e9190612310565b92505081905550806000808473ffffffffffffffffffffffffffffffffffffffff1673ffffffffffffffffffffffffffffffffffffffff16815260200190815260200160002060008282546111839190612310565b925050819055508173ffffffffffffffffffffffffffffffffffffffff16600073ffffffffffffffffffffffffffffffffffffffff167fddf252ad1be2c89b69c2b068fc378daa952ba7f163c4a11628f55a4df523b3ef836040516111e891906121fc565b60405180910390a36111fc6000838361160d565b5050565b6060600061121083600001611651565b905060608190508092505050919050565b600061123083600001836116ad565b60001c905092915050565b600073ffffffffffffffffffffffffffffffffffffffff168273ffffffffffffffffffffffffffffffffffffffff1614156112ab576040517f08c379a00000000000000000000000000000000000000000000000000000000081526004016112a29061215c565b60405180910390fd5b6112b782600083611608565b60008060008473ffffffffffffffffffffffffffffffffffffffff1673ffffffffffffffffffffffffffffffffffffffff1681526020019081526020016000205490508181101561133d576040517f08c379a0000000000000000000000000000000000000000000000000000000008152600401611334906120bc565b60405180910390fd5b8181036000808573ffffffffffffffffffffffffffffffffffffffff1673ffffffffffffffffffffffffffffffffffffffff1681526020019081526020016000208190555081600260008282546113949190612366565b92505081905550600073ffffffffffffffffffffffffffffffffffffffff168373ffffffffffffffffffffffffffffffffffffffff167fddf252ad1be2c89b69c2b068fc378daa952ba7f163c4a11628f55a4df523b3ef846040516113f991906121fc565b60405180910390a361140d8360008461160d565b505050565b600061141e83836116fe565b61147757826000018290806001815401808255809150506001900390600052602060002001600090919091909150558260000180549050836001016000848152602001908152602001600020819055506001905061147c565b600090505b92915050565b600080836001016000848152602001908152602001600020549050600081146115fc5760006001826114b49190612366565b90506000600186600001805490506114cc9190612366565b9050818114611587576000866000018281548110611513577f4e487b7100000000000000000000000000000000000000000000000000000000600052603260045260246000fd5b906000526020600020015490508087600001848154811061155d577f4e487b7100000000000000000000000000000000000000000000000000000000600052603260045260246000fd5b90600052602060002001819055508387600101600083815260200190815260200160002081905550505b856000018054806115c1577f4e487b7100000000000000000000000000000000000000000000000000000000600052603160045260246000fd5b600190038181906000526020600020016000905590558560010160008681526020019081526020016000206000905560019350505050611602565b60009150505b92915050565b505050565b60008111156116205761161f82611721565b5b600061162b84610774565b141561163b5761163a836117c4565b5b505050565b600081600001805490509050919050565b6060816000018054806020026020016040519081016040528092919081815260200182805480156116a157602002820191906000526020600020905b81548152602001906001019080831161168d575b50505050509050919050565b60008260000182815481106116eb577f4e487b7100000000000000000000000000000000000000000000000000000000600052603260045260246000fd5b9060005260206000200154905092915050565b600080836001016000848152602001908152602001600020541415905092915050565b611735816005610bd790919063ffffffff16565b1561177e578073ffffffffffffffffffffffffffffffffffffffff167f9894d458cf29e8bc4eb7e591bac54b31dc90125dfa852474419972ab4347dd1260405160405180910390a25b8073ffffffffffffffffffffffffffffffffffffffff167f9894d458cf29e8bc4eb7e591bac54b31dc90125dfa852474419972ab4347dd1260405160405180910390a250565b6117d8816005610c0790919063ffffffff16565b15611821578073ffffffffffffffffffffffffffffffffffffffff167fd9bc583d1445615d8b795b7374f03ff79efa83b6359a91331efd95e4cf023ab660405160405180910390a25b50565b600061183761183284612263565b612232565b9050808382526020820190508285602086028201111561185657600080fd5b60005b85811015611886578161186c88826118fc565b845260208401935060208301925050600181019050611859565b5050509392505050565b60006118a361189e8461228f565b612232565b905080838252602082019050828560208602820111156118c257600080fd5b60005b858110156118f257816118d88882611965565b8452602084019350602083019250506001810190506118c5565b5050509392505050565b60008135905061190b8161253b565b92915050565b600082601f83011261192257600080fd5b8135611932848260208601611824565b91505092915050565b600082601f83011261194c57600080fd5b813561195c848260208601611890565b91505092915050565b60008135905061197481612552565b92915050565b60006020828403121561198c57600080fd5b600061199a848285016118fc565b91505092915050565b600080604083850312156119b657600080fd5b60006119c4858286016118fc565b92505060206119d5858286016118fc565b9150509250929050565b6000806000606084860312156119f457600080fd5b6000611a02868287016118fc565b9350506020611a13868287016118fc565b9250506040611a2486828701611965565b9150509250925092565b60008060408385031215611a4157600080fd5b6000611a4f858286016118fc565b9250506020611a6085828601611965565b9150509250929050565b60008060408385031215611a7d57600080fd5b600083013567ffffffffffffffff811115611a9757600080fd5b611aa385828601611911565b925050602083013567ffffffffffffffff811115611ac057600080fd5b611acc8582860161193b565b9150509250929050565b60008060408385031215611ae957600080fd5b6000611af785828601611965565b9250506020611b0885828601611965565b9150509250929050565b6000611b1e8383611b2a565b60208301905092915050565b611b338161239a565b82525050565b611b428161239a565b82525050565b6000611b53826122cb565b611b5d81856122ee565b9350611b68836122bb565b8060005b83811015611b99578151611b808882611b12565b9750611b8b836122e1565b925050600181019050611b6c565b5085935050505092915050565b611baf816123ac565b82525050565b6000611bc0826122d6565b611bca81856122ff565b9350611bda8185602086016123ef565b611be38161252a565b840191505092915050565b6000611bfb6023836122ff565b91507f45524332303a207472616e7366657220746f20746865207a65726f206164647260008301527f65737300000000000000000000000000000000000000000000000000000000006020830152604082019050919050565b6000611c616022836122ff565b91507f45524332303a206275726e20616d6f756e7420657863656564732062616c616e60008301527f63650000000000000000000000000000000000000000000000000000000000006020830152604082019050919050565b6000611cc76022836122ff565b91507f45524332303a20617070726f766520746f20746865207a65726f20616464726560008301527f73730000000000000000000000000000000000000000000000000000000000006020830152604082019050919050565b6000611d2d6026836122ff565b91507f45524332303a207472616e7366657220616d6f756e742065786365656473206260008301527f616c616e636500000000000000000000000000000000000000000000000000006020830152604082019050919050565b6000611d936028836122ff565b91507f45524332303a207472616e7366657220616d6f756e742065786365656473206160008301527f6c6c6f77616e63650000000000000000000000000000000000000000000000006020830152604082019050919050565b6000611df9600e836122ff565b91507f496e76616c6964206f66667365740000000000000000000000000000000000006000830152602082019050919050565b6000611e396021836122ff565b91507f45524332303a206275726e2066726f6d20746865207a65726f2061646472657360008301527f73000000000000000000000000000000000000000000000000000000000000006020830152604082019050919050565b6000611e9f6025836122ff565b91507f45524332303a207472616e736665722066726f6d20746865207a65726f20616460008301527f64726573730000000000000000000000000000000000000000000000000000006020830152604082019050919050565b6000611f056024836122ff565b91507f45524332303a20617070726f76652066726f6d20746865207a65726f2061646460008301527f72657373000000000000000000000000000000000000000000000000000000006020830152604082019050919050565b6000611f6b6025836122ff565b91507f45524332303a2064656372656173656420616c6c6f77616e63652062656c6f7760008301527f207a65726f0000000000000000000000000000000000000000000000000000006020830152604082019050919050565b6000611fd1601f836122ff565b91507f45524332303a206d696e7420746f20746865207a65726f2061646472657373006000830152602082019050919050565b61200d816123d8565b82525050565b61201c816123e2565b82525050565b60006020820190506120376000830184611b39565b92915050565b600060208201905081810360008301526120578184611b48565b905092915050565b60006020820190506120746000830184611ba6565b92915050565b600060208201905081810360008301526120948184611bb5565b905092915050565b600060208201905081810360008301526120b581611bee565b9050919050565b600060208201905081810360008301526120d581611c54565b9050919050565b600060208201905081810360008301526120f581611cba565b9050919050565b6000602082019050818103600083015261211581611d20565b9050919050565b6000602082019050818103600083015261213581611d86565b9050919050565b6000602082019050818103600083015261215581611dec565b9050919050565b6000602082019050818103600083015261217581611e2c565b9050919050565b6000602082019050818103600083015261219581611e92565b9050919050565b600060208201905081810360008301526121b581611ef8565b9050919050565b600060208201905081810360008301526121d581611f5e565b9050919050565b600060208201905081810360008301526121f581611fc4565b9050919050565b60006020820190506122116000830184612004565b92915050565b600060208201905061222c6000830184612013565b92915050565b6000604051905081810181811067ffffffffffffffff82111715612259576122586124fb565b5b8060405250919050565b600067ffffffffffffffff82111561227e5761227d6124fb565b5b602082029050602081019050919050565b600067ffffffffffffffff8211156122aa576122a96124fb565b5b602082029050602081019050919050565b6000819050602082019050919050565b600081519050919050565b600081519050919050565b6000602082019050919050565b600082825260208201905092915050565b600082825260208201905092915050565b600061231b826123d8565b9150612326836123d8565b9250827fffffffffffffffffffffffffffffffffffffffffffffffffffffffffffffffff0382111561235b5761235a61249d565b5b828201905092915050565b6000612371826123d8565b915061237c836123d8565b92508282101561238f5761238e61249d565b5b828203905092915050565b60006123a5826123b8565b9050919050565b60008115159050919050565b600073ffffffffffffffffffffffffffffffffffffffff82169050919050565b6000819050919050565b600060ff82169050919050565b60005b8381101561240d5780820151818401526020810190506123f2565b8381111561241c576000848401525b50505050565b6000600282049050600182168061243a57607f821691505b6020821081141561244e5761244d6124cc565b5b50919050565b600061245f826123d8565b91507fffffffffffffffffffffffffffffffffffffffffffffffffffffffffffffffff8214156124925761249161249d565b5b600182019050919050565b7f4e487b7100000000000000000000000000000000000000000000000000000000600052601160045260246000fd5b7f4e487b7100000000000000000000000000000000000000000000000000000000600052602260045260246000fd5b7f4e487b7100000000000000000000000000000000000000000000000000000000600052604160045260246000fd5b6000601f19601f8301169050919050565b6125448161239a565b811461254f57600080fd5b50565b61255b816123d8565b811461256657600080fd5b5056fea26469706673582212201cd9ac3fd169f50f0d02895a69d991b6bce2866089369995de08899855f0ce0364736f6c63430008000033",
  "linkReferences": {},
  "deployedLinkReferences": {}
}