{
  "_format": "hh-sol-artifact-1",
  "contractName": "MyTokenMock",
  "sourceName": "contracts/mocks/MyTokenMock.sol",
  "abi": [
    {
      "inputs": [
        {
          "internalType": "uint256",
          "name": "initialBalance",
          "type": "uint256"
        }
      ],
      "stateMutability": "payable",
      "type": "constructor"
    },
    {
      "anonymous": false,
      "inputs": [
        {
          "indexed": true,
          "internalType": "address",
          "name": "owner",
          "type": "address"
        },
        {
          "indexed": true,
          "internalType": "address",
          "name": "spender",
          "type": "address"
        },
        {
          "indexed": false,
          "internalType": "uint256",
          "name": "value",
          "type": "uint256"
        }
      ],
      "name": "Approval",
      "type": "event"
    },
    {
      "anonymous": false,
      "inputs": [
        {
          "indexed": true,
          "internalType": "address",
          "name": "holder",
          "type": "address"
        }
      ],
      "name": "HolderAdded",
      "type": "event"
    },
    {
      "anonymous": false,
      "inputs": [
        {
          "indexed": true,
          "internalType": "address",
          "name": "holder",
          "type": "address"
        }
      ],
      "name": "HolderRemoved",
      "type": "event"
    },
    {
      "anonymous": false,
      "inputs": [
        {
          "indexed": true,
          "internalType": "address",
          "name": "from",
          "type": "address"
        },
        {
          "indexed": true,
          "internalType": "address",
          "name": "to",
          "type": "address"
        },
        {
          "indexed": false,
          "internalType": "uint256",
          "name": "value",
          "type": "uint256"
        }
      ],
      "name": "Transfer",
      "type": "event"
    },
    {
      "inputs": [
        {
          "internalType": "address",
          "name": "owner",
          "type": "address"
        },
        {
          "internalType": "address",
          "name": "spender",
          "type": "address"
        }
      ],
      "name": "allowance",
      "outputs": [
        {
          "internalType": "uint256",
          "name": "",
          "type": "uint256"
        }
      ],
      "stateMutability": "view",
      "type": "function"
    },
    {
      "inputs": [
        {
          "internalType": "address",
          "name": "spender",
          "type": "address"
        },
        {
          "internalType": "uint256",
          "name": "amount",
          "type": "uint256"
        }
      ],
      "name": "approve",
      "outputs": [
        {
          "internalType": "bool",
          "name": "",
          "type": "bool"
        }
      ],
      "stateMutability": "nonpayable",
      "type": "function"
    },
    {
      "inputs": [
        {
          "internalType": "address",
          "name": "owner",
          "type": "address"
        },
        {
          "internalType": "address",
          "name": "spender",
          "type": "address"
        },
        {
          "internalType": "uint256",
          "name": "value",
          "type": "uint256"
        }
      ],
      "name": "approveInternal",
      "outputs": [],
      "stateMutability": "nonpayable",
      "type": "function"
    },
    {
      "inputs": [
        {
          "internalType": "address",
          "name": "account",
          "type": "address"
        }
      ],
      "name": "balanceOf",
      "outputs": [
        {
          "internalType": "uint256",
          "name": "",
          "type": "uint256"
        }
      ],
      "stateMutability": "view",
      "type": "function"
    },
    {
      "inputs": [
        {
          "internalType": "address",
          "name": "account",
          "type": "address"
        },
        {
          "internalType": "uint256",
          "name": "amount",
          "type": "uint256"
        }
      ],
      "name": "burn",
      "outputs": [],
      "stateMutability": "nonpayable",
      "type": "function"
    },
    {
      "inputs": [],
      "name": "decimals",
      "outputs": [
        {
          "internalType": "uint8",
          "name": "",
          "type": "uint8"
        }
      ],
      "stateMutability": "view",
      "type": "function"
    },
    {
      "inputs": [
        {
          "internalType": "address",
          "name": "spender",
          "type": "address"
        },
        {
          "internalType": "uint256",
          "name": "subtractedValue",
          "type": "uint256"
        }
      ],
      "name": "decreaseAllowance",
      "outputs": [
        {
          "internalType": "bool",
          "name": "",
          "type": "bool"
        }
      ],
      "stateMutability": "nonpayable",
      "type": "function"
    },
    {
      "inputs": [],
      "name": "getHolderAmount",
      "outputs": [
        {
          "internalType": "uint256",
          "name": "",
          "type": "uint256"
        }
      ],
      "stateMutability": "view",
      "type": "function"
    },
    {
      "inputs": [],
      "name": "getHolders",
      "outputs": [
        {
          "internalType": "address[]",
          "name": "",
          "type": "address[]"
        }
      ],
      "stateMutability": "view",
      "type": "function"
    },
    {
      "inputs": [],
      "name": "getOwner",
      "outputs": [
        {
          "internalType": "address",
          "name": "",
          "type": "address"
        }
      ],
      "stateMutability": "view",
      "type": "function"
    },
    {
      "inputs": [
        {
          "internalType": "uint256",
          "name": "itemsToGet",
          "type": "uint256"
        },
        {
          "internalType": "uint256",
          "name": "offset",
          "type": "uint256"
        }
      ],
      "name": "getPagedHolders",
      "outputs": [
        {
          "internalType": "address[]",
          "name": "",
          "type": "address[]"
        }
      ],
      "stateMutability": "view",
      "type": "function"
    },
    {
      "inputs": [
        {
          "internalType": "address",
          "name": "spender",
          "type": "address"
        },
        {
          "internalType": "uint256",
          "name": "addedValue",
          "type": "uint256"
        }
      ],
      "name": "increaseAllowance",
      "outputs": [
        {
          "internalType": "bool",
          "name": "",
          "type": "bool"
        }
      ],
      "stateMutability": "nonpayable",
      "type": "function"
    },
    {
      "inputs": [
        {
          "internalType": "address",
          "name": "account",
          "type": "address"
        },
        {
          "internalType": "uint256",
          "name": "amount",
          "type": "uint256"
        }
      ],
      "name": "mint",
      "outputs": [],
      "stateMutability": "nonpayable",
      "type": "function"
    },
    {
      "inputs": [],
      "name": "name",
      "outputs": [
        {
          "internalType": "string",
          "name": "",
          "type": "string"
        }
      ],
      "stateMutability": "view",
      "type": "function"
    },
    {
      "inputs": [],
      "name": "symbol",
      "outputs": [
        {
          "internalType": "string",
          "name": "",
          "type": "string"
        }
      ],
      "stateMutability": "view",
      "type": "function"
    },
    {
      "inputs": [],
      "name": "totalSupply",
      "outputs": [
        {
          "internalType": "uint256",
          "name": "",
          "type": "uint256"
        }
      ],
      "stateMutability": "view",
      "type": "function"
    },
    {
      "inputs": [
        {
          "internalType": "address",
          "name": "recipient",
          "type": "address"
        },
        {
          "internalType": "uint256",
          "name": "amount",
          "type": "uint256"
        }
      ],
      "name": "transfer",
      "outputs": [
        {
          "internalType": "bool",
          "name": "",
          "type": "bool"
        }
      ],
      "stateMutability": "nonpayable",
      "type": "function"
    },
    {
      "inputs": [
        {
          "internalType": "address",
          "name": "sender",
          "type": "address"
        },
        {
          "internalType": "address",
          "name": "recipient",
          "type": "address"
        },
        {
          "internalType": "uint256",
          "name": "amount",
          "type": "uint256"
        }
      ],
      "name": "transferFrom",
      "outputs": [
        {
          "internalType": "bool",
          "name": "",
          "type": "bool"
        }
      ],
      "stateMutability": "nonpayable",
      "type": "function"
    },
    {
      "inputs": [
        {
          "internalType": "address",
          "name": "from",
          "type": "address"
        },
        {
          "internalType": "address",
          "name": "to",
          "type": "address"
        },
        {
          "internalType": "uint256",
          "name": "value",
          "type": "uint256"
        }
      ],
      "name": "transferInternal",
      "outputs": [],
      "stateMutability": "nonpayable",
      "type": "function"
    }
  ],
  "bytecode": "0x608060405260405162002ca238038062002ca28339818101604052810190620000299190620007f9565b806040518060400160405280600981526020017f536f6c61726d696e6500000000000000000000000000000000000000000000008152506040518060400160405280600281526020017f534d00000000000000000000000000000000000000000000000000000000000081525081818160039080519060200190620000b092919062000732565b508060049080519060200190620000c992919062000732565b505050620000ed620000e06200016760201b60201c565b846200016f60201b60201c565b6200010d620001016200016760201b60201c565b620002e860201b60201c565b6200011d6200016760201b60201c565b600760006101000a81548173ffffffffffffffffffffffffffffffffffffffff021916908373ffffffffffffffffffffffffffffffffffffffff1602179055505050505062000a18565b600033905090565b600073ffffffffffffffffffffffffffffffffffffffff168273ffffffffffffffffffffffffffffffffffffffff161415620001e2576040517f08c379a0000000000000000000000000000000000000000000000000000000008152600401620001d99062000878565b60405180910390fd5b620001f6600083836200039360201b60201c565b80600260008282546200020a9190620008c8565b92505081905550806000808473ffffffffffffffffffffffffffffffffffffffff1673ffffffffffffffffffffffffffffffffffffffff1681526020019081526020016000206000828254620002619190620008c8565b925050819055508173ffffffffffffffffffffffffffffffffffffffff16600073ffffffffffffffffffffffffffffffffffffffff167fddf252ad1be2c89b69c2b068fc378daa952ba7f163c4a11628f55a4df523b3ef83604051620002c891906200089a565b60405180910390a3620002e4600083836200039860201b60201c565b5050565b62000303816005620003e560201b62000b021790919060201c565b156200034d578073ffffffffffffffffffffffffffffffffffffffff167f9894d458cf29e8bc4eb7e591bac54b31dc90125dfa852474419972ab4347dd1260405160405180910390a25b8073ffffffffffffffffffffffffffffffffffffffff167f9894d458cf29e8bc4eb7e591bac54b31dc90125dfa852474419972ab4347dd1260405160405180910390a250565b505050565b6000811115620003b457620003b382620002e860201b60201c565b5b6000620003c7846200041d60201b60201c565b1415620003e057620003df836200046560201b60201c565b5b505050565b600062000415836000018373ffffffffffffffffffffffffffffffffffffffff1660001b620004cd60201b60201c565b905092915050565b60008060008373ffffffffffffffffffffffffffffffffffffffff1673ffffffffffffffffffffffffffffffffffffffff168152602001908152602001600020549050919050565b620004808160056200054760201b62000b321790919060201c565b15620004ca578073ffffffffffffffffffffffffffffffffffffffff167fd9bc583d1445615d8b795b7374f03ff79efa83b6359a91331efd95e4cf023ab660405160405180910390a25b50565b6000620004e183836200057f60201b60201c565b6200053c57826000018290806001815401808255809150506001900390600052602060002001600090919091909150558260000180549050836001016000848152602001908152602001600020819055506001905062000541565b600090505b92915050565b600062000577836000018373ffffffffffffffffffffffffffffffffffffffff1660001b620005a260201b60201c565b905092915050565b600080836001016000848152602001908152602001600020541415905092915050565b6000808360010160008481526020019081526020016000205490506000811462000726576000600182620005d7919062000925565b9050600060018660000180549050620005f1919062000925565b9050818114620006af5760008660000182815481106200063a577f4e487b7100000000000000000000000000000000000000000000000000000000600052603260045260246000fd5b906000526020600020015490508087600001848154811062000685577f4e487b7100000000000000000000000000000000000000000000000000000000600052603260045260246000fd5b90600052602060002001819055508387600101600083815260200190815260200160002081905550505b85600001805480620006ea577f4e487b7100000000000000000000000000000000000000000000000000000000600052603160045260246000fd5b6001900381819060005260206000200160009055905585600101600086815260200190815260200160002060009055600193505050506200072c565b60009150505b92915050565b82805462000740906200096a565b90600052602060002090601f016020900481019282620007645760008555620007b0565b82601f106200077f57805160ff1916838001178555620007b0565b82800160010185558215620007b0579182015b82811115620007af57825182559160200191906001019062000792565b5b509050620007bf9190620007c3565b5090565b5b80821115620007de576000816000905550600101620007c4565b5090565b600081519050620007f381620009fe565b92915050565b6000602082840312156200080c57600080fd5b60006200081c84828501620007e2565b91505092915050565b600062000834601f83620008b7565b91507f45524332303a206d696e7420746f20746865207a65726f2061646472657373006000830152602082019050919050565b620008728162000960565b82525050565b60006020820190508181036000830152620008938162000825565b9050919050565b6000602082019050620008b1600083018462000867565b92915050565b600082825260208201905092915050565b6000620008d58262000960565b9150620008e28362000960565b9250827fffffffffffffffffffffffffffffffffffffffffffffffffffffffffffffffff038211156200091a5762000919620009a0565b5b828201905092915050565b6000620009328262000960565b91506200093f8362000960565b925082821015620009555762000954620009a0565b5b828203905092915050565b6000819050919050565b600060028204905060018216806200098357607f821691505b602082108114156200099a5762000999620009cf565b5b50919050565b7f4e487b7100000000000000000000000000000000000000000000000000000000600052601160045260246000fd5b7f4e487b7100000000000000000000000000000000000000000000000000000000600052602260045260246000fd5b62000a098162000960565b811462000a1557600080fd5b50565b61227a8062000a286000396000f3fe608060405234801561001057600080fd5b50600436106101215760003560e01c806356189cb4116100ad57806395d89b411161007157806395d89b411461031e5780639dc29fac1461033c578063a457c2d714610358578063a9059cbb14610388578063dd62ed3e146103b857610121565b806356189cb4146102665780635fe8e7cc1461028257806370a08231146102a057806371a8d605146102d0578063893d20e81461030057610121565b806323b872dd116100f457806323b872dd146101ae5780632b013f78146101de578063313ce567146101fc578063395093511461021a57806340c10f191461024a57610121565b806306fdde0314610126578063095ea7b31461014457806318160ddd14610174578063222f5be014610192575b600080fd5b61012e6103e8565b60405161013b9190611e0d565b60405180910390f35b61015e6004803603810190610159919061182d565b61047a565b60405161016b9190611df2565b60405180910390f35b61017c610498565b6040516101899190611f8f565b60405180910390f35b6101ac60048036038101906101a791906117de565b6104a2565b005b6101c860048036038101906101c391906117de565b6104b2565b6040516101d59190611df2565b60405180910390f35b6101e66105aa565b6040516101f39190611f8f565b60405180910390f35b6102046105bb565b6040516102119190611faa565b60405180910390f35b610234600480360381019061022f919061182d565b6105c4565b6040516102419190611df2565b60405180910390f35b610264600480360381019061025f919061182d565b610670565b005b610280600480360381019061027b91906117de565b61067e565b005b61028a61068e565b6040516102979190611dd0565b60405180910390f35b6102ba60048036038101906102b59190611779565b61069f565b6040516102c79190611f8f565b60405180910390f35b6102ea60048036038101906102e59190611869565b6106e7565b6040516102f79190611dd0565b60405180910390f35b6103086108a8565b6040516103159190611db5565b60405180910390f35b6103266108d2565b6040516103339190611e0d565b60405180910390f35b6103566004803603810190610351919061182d565b610964565b005b610372600480360381019061036d919061182d565b610972565b60405161037f9190611df2565b60405180910390f35b6103a2600480360381019061039d919061182d565b610a5d565b6040516103af9190611df2565b60405180910390f35b6103d260048036038101906103cd91906117a2565b610a7b565b6040516103df9190611f8f565b60405180910390f35b6060600380546103f79061212c565b80601f01602080910402602001604051908101604052809291908181526020018280546104239061212c565b80156104705780601f1061044557610100808354040283529160200191610470565b820191906000526020600020905b81548152906001019060200180831161045357829003601f168201915b5050505050905090565b600061048e610487610b62565b8484610b6a565b6001905092915050565b6000600254905090565b6104ad838383610d35565b505050565b60006104bf848484610d35565b6000600160008673ffffffffffffffffffffffffffffffffffffffff1673ffffffffffffffffffffffffffffffffffffffff168152602001908152602001600020600061050a610b62565b73ffffffffffffffffffffffffffffffffffffffff1673ffffffffffffffffffffffffffffffffffffffff1681526020019081526020016000205490508281101561058a576040517f08c379a000000000000000000000000000000000000000000000000000000000815260040161058190611eaf565b60405180910390fd5b61059e85610596610b62565b858403610b6a565b60019150509392505050565b60006105b66005610fb6565b905090565b60006012905090565b60006106666105d1610b62565b8484600160006105df610b62565b73ffffffffffffffffffffffffffffffffffffffff1673ffffffffffffffffffffffffffffffffffffffff16815260200190815260200160002060008873ffffffffffffffffffffffffffffffffffffffff1673ffffffffffffffffffffffffffffffffffffffff16815260200190815260200160002054610661919061201a565b610b6a565b6001905092915050565b61067a8282610fcb565b5050565b610689838383610b6a565b505050565b606061069a600561112b565b905090565b60008060008373ffffffffffffffffffffffffffffffffffffffff1673ffffffffffffffffffffffffffffffffffffffff168152602001908152602001600020549050919050565b606060006106f56005610fb6565b9050828111610739576040517f08c379a000000000000000000000000000000000000000000000000000000000815260040161073090611ecf565b60405180910390fd5b6000818486610748919061201a565b116107535784610760565b838261075f9190612070565b5b905060008167ffffffffffffffff8111156107a4577f4e487b7100000000000000000000000000000000000000000000000000000000600052604160045260246000fd5b6040519080825280602002602001820160405280156107d25781602001602082028036833780820191505090505b50905060005b86811080156107f157508386826107ef919061201a565b105b1561089b576108158682610805919061201a565b600561114c90919063ffffffff16565b82828151811061084e577f4e487b7100000000000000000000000000000000000000000000000000000000600052603260045260246000fd5b602002602001019073ffffffffffffffffffffffffffffffffffffffff16908173ffffffffffffffffffffffffffffffffffffffff168152505080806108939061215e565b9150506107d8565b5080935050505092915050565b6000600760009054906101000a900473ffffffffffffffffffffffffffffffffffffffff16905090565b6060600480546108e19061212c565b80601f016020809104026020016040519081016040528092919081815260200182805461090d9061212c565b801561095a5780601f1061092f5761010080835404028352916020019161095a565b820191906000526020600020905b81548152906001019060200180831161093d57829003601f168201915b5050505050905090565b61096e8282611166565b5050565b60008060016000610981610b62565b73ffffffffffffffffffffffffffffffffffffffff1673ffffffffffffffffffffffffffffffffffffffff16815260200190815260200160002060008573ffffffffffffffffffffffffffffffffffffffff1673ffffffffffffffffffffffffffffffffffffffff16815260200190815260200160002054905082811015610a3e576040517f08c379a0000000000000000000000000000000000000000000000000000000008152600401610a3590611f4f565b60405180910390fd5b610a52610a49610b62565b85858403610b6a565b600191505092915050565b6000610a71610a6a610b62565b8484610d35565b6001905092915050565b6000600160008473ffffffffffffffffffffffffffffffffffffffff1673ffffffffffffffffffffffffffffffffffffffff16815260200190815260200160002060008373ffffffffffffffffffffffffffffffffffffffff1673ffffffffffffffffffffffffffffffffffffffff16815260200190815260200160002054905092915050565b6000610b2a836000018373ffffffffffffffffffffffffffffffffffffffff1660001b61133d565b905092915050565b6000610b5a836000018373ffffffffffffffffffffffffffffffffffffffff1660001b6113ad565b905092915050565b600033905090565b600073ffffffffffffffffffffffffffffffffffffffff168373ffffffffffffffffffffffffffffffffffffffff161415610bda576040517f08c379a0000000000000000000000000000000000000000000000000000000008152600401610bd190611f2f565b60405180910390fd5b600073ffffffffffffffffffffffffffffffffffffffff168273ffffffffffffffffffffffffffffffffffffffff161415610c4a576040517f08c379a0000000000000000000000000000000000000000000000000000000008152600401610c4190611e6f565b60405180910390fd5b80600160008573ffffffffffffffffffffffffffffffffffffffff1673ffffffffffffffffffffffffffffffffffffffff16815260200190815260200160002060008473ffffffffffffffffffffffffffffffffffffffff1673ffffffffffffffffffffffffffffffffffffffff168152602001908152602001600020819055508173ffffffffffffffffffffffffffffffffffffffff168373ffffffffffffffffffffffffffffffffffffffff167f8c5be1e5ebec7d5bd14f71427d1e84f3dd0314c0f7b2291e5b200ac8c7c3b92583604051610d289190611f8f565b60405180910390a3505050565b600073ffffffffffffffffffffffffffffffffffffffff168373ffffffffffffffffffffffffffffffffffffffff161415610da5576040517f08c379a0000000000000000000000000000000000000000000000000000000008152600401610d9c90611f0f565b60405180910390fd5b600073ffffffffffffffffffffffffffffffffffffffff168273ffffffffffffffffffffffffffffffffffffffff161415610e15576040517f08c379a0000000000000000000000000000000000000000000000000000000008152600401610e0c90611e2f565b60405180910390fd5b610e20838383611533565b60008060008573ffffffffffffffffffffffffffffffffffffffff1673ffffffffffffffffffffffffffffffffffffffff16815260200190815260200160002054905081811015610ea6576040517f08c379a0000000000000000000000000000000000000000000000000000000008152600401610e9d90611e8f565b60405180910390fd5b8181036000808673ffffffffffffffffffffffffffffffffffffffff1673ffffffffffffffffffffffffffffffffffffffff16815260200190815260200160002081905550816000808573ffffffffffffffffffffffffffffffffffffffff1673ffffffffffffffffffffffffffffffffffffffff1681526020019081526020016000206000828254610f39919061201a565b925050819055508273ffffffffffffffffffffffffffffffffffffffff168473ffffffffffffffffffffffffffffffffffffffff167fddf252ad1be2c89b69c2b068fc378daa952ba7f163c4a11628f55a4df523b3ef84604051610f9d9190611f8f565b60405180910390a3610fb0848484611538565b50505050565b6000610fc48260000161156b565b9050919050565b600073ffffffffffffffffffffffffffffffffffffffff168273ffffffffffffffffffffffffffffffffffffffff16141561103b576040517f08c379a000000000000000000000000000000000000000000000000000000000815260040161103290611f6f565b60405180910390fd5b61104760008383611533565b8060026000828254611059919061201a565b92505081905550806000808473ffffffffffffffffffffffffffffffffffffffff1673ffffffffffffffffffffffffffffffffffffffff16815260200190815260200160002060008282546110ae919061201a565b925050819055508173ffffffffffffffffffffffffffffffffffffffff16600073ffffffffffffffffffffffffffffffffffffffff167fddf252ad1be2c89b69c2b068fc378daa952ba7f163c4a11628f55a4df523b3ef836040516111139190611f8f565b60405180910390a361112760008383611538565b5050565b6060600061113b8360000161157c565b905060608190508092505050919050565b600061115b83600001836115d8565b60001c905092915050565b600073ffffffffffffffffffffffffffffffffffffffff168273ffffffffffffffffffffffffffffffffffffffff1614156111d6576040517f08c379a00000000000000000000000000000000000000000000000000000000081526004016111cd90611eef565b60405180910390fd5b6111e282600083611533565b60008060008473ffffffffffffffffffffffffffffffffffffffff1673ffffffffffffffffffffffffffffffffffffffff16815260200190815260200160002054905081811015611268576040517f08c379a000000000000000000000000000000000000000000000000000000000815260040161125f90611e4f565b60405180910390fd5b8181036000808573ffffffffffffffffffffffffffffffffffffffff1673ffffffffffffffffffffffffffffffffffffffff1681526020019081526020016000208190555081600260008282546112bf9190612070565b92505081905550600073ffffffffffffffffffffffffffffffffffffffff168373ffffffffffffffffffffffffffffffffffffffff167fddf252ad1be2c89b69c2b068fc378daa952ba7f163c4a11628f55a4df523b3ef846040516113249190611f8f565b60405180910390a361133883600084611538565b505050565b60006113498383611629565b6113a25782600001829080600181540180825580915050600190039060005260206000200160009091909190915055826000018054905083600101600084815260200190815260200160002081905550600190506113a7565b600090505b92915050565b600080836001016000848152602001908152602001600020549050600081146115275760006001826113df9190612070565b90506000600186600001805490506113f79190612070565b90508181146114b257600086600001828154811061143e577f4e487b7100000000000000000000000000000000000000000000000000000000600052603260045260246000fd5b9060005260206000200154905080876000018481548110611488577f4e487b7100000000000000000000000000000000000000000000000000000000600052603260045260246000fd5b90600052602060002001819055508387600101600083815260200190815260200160002081905550505b856000018054806114ec577f4e487b7100000000000000000000000000000000000000000000000000000000600052603160045260246000fd5b60019003818190600052602060002001600090559055856001016000868152602001908152602001600020600090556001935050505061152d565b60009150505b92915050565b505050565b600081111561154b5761154a8261164c565b5b60006115568461069f565b141561156657611565836116ef565b5b505050565b600081600001805490509050919050565b6060816000018054806020026020016040519081016040528092919081815260200182805480156115cc57602002820191906000526020600020905b8154815260200190600101908083116115b8575b50505050509050919050565b6000826000018281548110611616577f4e487b7100000000000000000000000000000000000000000000000000000000600052603260045260246000fd5b9060005260206000200154905092915050565b600080836001016000848152602001908152602001600020541415905092915050565b611660816005610b0290919063ffffffff16565b156116a9578073ffffffffffffffffffffffffffffffffffffffff167f9894d458cf29e8bc4eb7e591bac54b31dc90125dfa852474419972ab4347dd1260405160405180910390a25b8073ffffffffffffffffffffffffffffffffffffffff167f9894d458cf29e8bc4eb7e591bac54b31dc90125dfa852474419972ab4347dd1260405160405180910390a250565b611703816005610b3290919063ffffffff16565b1561174c578073ffffffffffffffffffffffffffffffffffffffff167fd9bc583d1445615d8b795b7374f03ff79efa83b6359a91331efd95e4cf023ab660405160405180910390a25b50565b60008135905061175e81612216565b92915050565b6000813590506117738161222d565b92915050565b60006020828403121561178b57600080fd5b60006117998482850161174f565b91505092915050565b600080604083850312156117b557600080fd5b60006117c38582860161174f565b92505060206117d48582860161174f565b9150509250929050565b6000806000606084860312156117f357600080fd5b60006118018682870161174f565b93505060206118128682870161174f565b925050604061182386828701611764565b9150509250925092565b6000806040838503121561184057600080fd5b600061184e8582860161174f565b925050602061185f85828601611764565b9150509250929050565b6000806040838503121561187c57600080fd5b600061188a85828601611764565b925050602061189b85828601611764565b9150509250929050565b60006118b183836118bd565b60208301905092915050565b6118c6816120a4565b82525050565b6118d5816120a4565b82525050565b60006118e682611fd5565b6118f08185611ff8565b93506118fb83611fc5565b8060005b8381101561192c57815161191388826118a5565b975061191e83611feb565b9250506001810190506118ff565b5085935050505092915050565b611942816120b6565b82525050565b600061195382611fe0565b61195d8185612009565b935061196d8185602086016120f9565b61197681612205565b840191505092915050565b600061198e602383612009565b91507f45524332303a207472616e7366657220746f20746865207a65726f206164647260008301527f65737300000000000000000000000000000000000000000000000000000000006020830152604082019050919050565b60006119f4602283612009565b91507f45524332303a206275726e20616d6f756e7420657863656564732062616c616e60008301527f63650000000000000000000000000000000000000000000000000000000000006020830152604082019050919050565b6000611a5a602283612009565b91507f45524332303a20617070726f766520746f20746865207a65726f20616464726560008301527f73730000000000000000000000000000000000000000000000000000000000006020830152604082019050919050565b6000611ac0602683612009565b91507f45524332303a207472616e7366657220616d6f756e742065786365656473206260008301527f616c616e636500000000000000000000000000000000000000000000000000006020830152604082019050919050565b6000611b26602883612009565b91507f45524332303a207472616e7366657220616d6f756e742065786365656473206160008301527f6c6c6f77616e63650000000000000000000000000000000000000000000000006020830152604082019050919050565b6000611b8c600e83612009565b91507f496e76616c6964206f66667365740000000000000000000000000000000000006000830152602082019050919050565b6000611bcc602183612009565b91507f45524332303a206275726e2066726f6d20746865207a65726f2061646472657360008301527f73000000000000000000000000000000000000000000000000000000000000006020830152604082019050919050565b6000611c32602583612009565b91507f45524332303a207472616e736665722066726f6d20746865207a65726f20616460008301527f64726573730000000000000000000000000000000000000000000000000000006020830152604082019050919050565b6000611c98602483612009565b91507f45524332303a20617070726f76652066726f6d20746865207a65726f2061646460008301527f72657373000000000000000000000000000000000000000000000000000000006020830152604082019050919050565b6000611cfe602583612009565b91507f45524332303a2064656372656173656420616c6c6f77616e63652062656c6f7760008301527f207a65726f0000000000000000000000000000000000000000000000000000006020830152604082019050919050565b6000611d64601f83612009565b91507f45524332303a206d696e7420746f20746865207a65726f2061646472657373006000830152602082019050919050565b611da0816120e2565b82525050565b611daf816120ec565b82525050565b6000602082019050611dca60008301846118cc565b92915050565b60006020820190508181036000830152611dea81846118db565b905092915050565b6000602082019050611e076000830184611939565b92915050565b60006020820190508181036000830152611e278184611948565b905092915050565b60006020820190508181036000830152611e4881611981565b9050919050565b60006020820190508181036000830152611e68816119e7565b9050919050565b60006020820190508181036000830152611e8881611a4d565b9050919050565b60006020820190508181036000830152611ea881611ab3565b9050919050565b60006020820190508181036000830152611ec881611b19565b9050919050565b60006020820190508181036000830152611ee881611b7f565b9050919050565b60006020820190508181036000830152611f0881611bbf565b9050919050565b60006020820190508181036000830152611f2881611c25565b9050919050565b60006020820190508181036000830152611f4881611c8b565b9050919050565b60006020820190508181036000830152611f6881611cf1565b9050919050565b60006020820190508181036000830152611f8881611d57565b9050919050565b6000602082019050611fa46000830184611d97565b92915050565b6000602082019050611fbf6000830184611da6565b92915050565b6000819050602082019050919050565b600081519050919050565b600081519050919050565b6000602082019050919050565b600082825260208201905092915050565b600082825260208201905092915050565b6000612025826120e2565b9150612030836120e2565b9250827fffffffffffffffffffffffffffffffffffffffffffffffffffffffffffffffff03821115612065576120646121a7565b5b828201905092915050565b600061207b826120e2565b9150612086836120e2565b925082821015612099576120986121a7565b5b828203905092915050565b60006120af826120c2565b9050919050565b60008115159050919050565b600073ffffffffffffffffffffffffffffffffffffffff82169050919050565b6000819050919050565b600060ff82169050919050565b60005b838110156121175780820151818401526020810190506120fc565b83811115612126576000848401525b50505050565b6000600282049050600182168061214457607f821691505b60208210811415612158576121576121d6565b5b50919050565b6000612169826120e2565b91507fffffffffffffffffffffffffffffffffffffffffffffffffffffffffffffffff82141561219c5761219b6121a7565b5b600182019050919050565b7f4e487b7100000000000000000000000000000000000000000000000000000000600052601160045260246000fd5b7f4e487b7100000000000000000000000000000000000000000000000000000000600052602260045260246000fd5b6000601f19601f8301169050919050565b61221f816120a4565b811461222a57600080fd5b50565b612236816120e2565b811461224157600080fd5b5056fea2646970667358221220f09aeb0769099e18dc1210469e38b0bdad2d3eb26418dd50315f07da4765834664736f6c63430008000033",
  "linkReferences": {},
  "deployedLinkReferences": {}
}