{
  "_format": "hh-sol-artifact-1",
  "contractName": "RewardsMock",
  "sourceName": "contracts/mocks/RewardsMock.sol",
  "abi": [
    {
      "inputs": [
        {
          "internalType": "address",
          "name": "underlying",
          "type": "address"
        },
        {
          "internalType": "address",
          "name": "blacklistAddress",
          "type": "address"
        }
      ],
      "stateMutability": "nonpayable",
      "type": "constructor"
    },
    {
      "anonymous": false,
      "inputs": [],
      "name": "BatchCompleted",
      "type": "event"
    },
    {
      "anonymous": false,
      "inputs": [
        {
          "indexed": true,
          "internalType": "address",
          "name": "previousOwner",
          "type": "address"
        },
        {
          "indexed": true,
          "internalType": "address",
          "name": "newOwner",
          "type": "address"
        }
      ],
      "name": "OwnershipTransferred",
      "type": "event"
    },
    {
      "anonymous": false,
      "inputs": [
        {
          "indexed": true,
          "internalType": "address",
          "name": "",
          "type": "address"
        }
      ],
      "name": "ReceiverRefusedReward",
      "type": "event"
    },
    {
      "inputs": [],
      "name": "getBatchHolders",
      "outputs": [
        {
          "internalType": "address[]",
          "name": "",
          "type": "address[]"
        }
      ],
      "stateMutability": "view",
      "type": "function"
    },
    {
      "inputs": [
        {
          "internalType": "uint256",
          "name": "batchSize",
          "type": "uint256"
        }
      ],
      "name": "initiateBatch",
      "outputs": [],
      "stateMutability": "payable",
      "type": "function"
    },
    {
      "inputs": [],
      "name": "notifyRewards",
      "outputs": [],
      "stateMutability": "payable",
      "type": "function"
    },
    {
      "inputs": [],
      "name": "owner",
      "outputs": [
        {
          "internalType": "address",
          "name": "",
          "type": "address"
        }
      ],
      "stateMutability": "view",
      "type": "function"
    },
    {
      "inputs": [],
      "name": "processBatch",
      "outputs": [],
      "stateMutability": "nonpayable",
      "type": "function"
    },
    {
      "inputs": [],
      "name": "recoverAssets",
      "outputs": [],
      "stateMutability": "nonpayable",
      "type": "function"
    },
    {
      "inputs": [],
      "name": "renounceOwnership",
      "outputs": [],
      "stateMutability": "nonpayable",
      "type": "function"
    },
    {
      "inputs": [
        {
          "internalType": "address",
          "name": "newOwner",
          "type": "address"
        }
      ],
      "name": "transferOwnership",
      "outputs": [],
      "stateMutability": "nonpayable",
      "type": "function"
    },
    {
      "inputs": [
        {
          "internalType": "uint256",
          "name": "batchSize",
          "type": "uint256"
        },
        {
          "internalType": "uint256",
          "name": "offset",
          "type": "uint256"
        }
      ],
      "name": "updateHolders",
      "outputs": [],
      "stateMutability": "nonpayable",
      "type": "function"
    }
  ],
  "bytecode": "0x608060405260006008553480156200001657600080fd5b50604051620022393803806200223983398181016040528101906200003c9190620001cd565b81816200005e62000052620000ea60201b60201c565b620000f260201b60201c565b81600160006101000a81548173ffffffffffffffffffffffffffffffffffffffff021916908373ffffffffffffffffffffffffffffffffffffffff16021790555080600260006101000a81548173ffffffffffffffffffffffffffffffffffffffff021916908373ffffffffffffffffffffffffffffffffffffffff160217905550505050506200025c565b600033905090565b60008060009054906101000a900473ffffffffffffffffffffffffffffffffffffffff169050816000806101000a81548173ffffffffffffffffffffffffffffffffffffffff021916908373ffffffffffffffffffffffffffffffffffffffff1602179055508173ffffffffffffffffffffffffffffffffffffffff168173ffffffffffffffffffffffffffffffffffffffff167f8be0079c531659141344cd1fd0a4f28419497f9722a3daafe3b4186f6b6457e060405160405180910390a35050565b600081519050620001c78162000242565b92915050565b60008060408385031215620001e157600080fd5b6000620001f185828601620001b6565b92505060206200020485828601620001b6565b9150509250929050565b60006200021b8262000222565b9050919050565b600073ffffffffffffffffffffffffffffffffffffffff82169050919050565b6200024d816200020e565b81146200025957600080fd5b50565b611fcd806200026c6000396000f3fe6080604052600436106100865760003560e01c806363c7feef1161005957806363c7feef146100f1578063715018a6146101085780638da5cb5b1461011f578063eccf2a661461014a578063f2fde38b1461017557610086565b80633be52fc41461008b5780633d546fe01461009557806342947d4d146100be5780634cd6bfbc146100da575b600080fd5b61009361019e565b005b3480156100a157600080fd5b506100bc60048036038101906100b79190611916565b6107b3565b005b6100d860048036038101906100d391906118c4565b610931565b005b3480156100e657600080fd5b506100ef610f50565b005b3480156100fd57600080fd5b50610106611286565b005b34801561011457600080fd5b5061011d61137d565b005b34801561012b57600080fd5b50610134611405565b6040516101419190611b8a565b60405180910390f35b34801561015657600080fd5b5061015f61142e565b60405161016c9190611ba5565b60405180910390f35b34801561018157600080fd5b5061019c6004803603810190610197919061185a565b6114bc565b005b6000479050600081116101e6576040517f08c379a00000000000000000000000000000000000000000000000000000000081526004016101dd90611c47565b60405180910390fd5b6000600160009054906101000a900473ffffffffffffffffffffffffffffffffffffffff1673ffffffffffffffffffffffffffffffffffffffff16635fe8e7cc6040518163ffffffff1660e01b815260040160006040518083038186803b15801561025057600080fd5b505afa158015610264573d6000803e3d6000fd5b505050506040513d6000823e3d601f19601f8201168201806040525081019061028d9190611883565b90506000600160009054906101000a900473ffffffffffffffffffffffffffffffffffffffff1673ffffffffffffffffffffffffffffffffffffffff166318160ddd6040518163ffffffff1660e01b815260040160206040518083038186803b1580156102f957600080fd5b505afa15801561030d573d6000803e3d6000fd5b505050506040513d601f19601f8201168201806040525081019061033191906118ed565b905060005b825181101561053c57600260009054906101000a900473ffffffffffffffffffffffffffffffffffffffff1673ffffffffffffffffffffffffffffffffffffffff168382815181106103b1577f4e487b7100000000000000000000000000000000000000000000000000000000600052603260045260246000fd5b602002602001015173ffffffffffffffffffffffffffffffffffffffff161415610529576001838281518110610410577f4e487b7100000000000000000000000000000000000000000000000000000000600052603260045260246000fd5b602002602001019073ffffffffffffffffffffffffffffffffffffffff16908173ffffffffffffffffffffffffffffffffffffffff1681525050600160009054906101000a900473ffffffffffffffffffffffffffffffffffffffff1673ffffffffffffffffffffffffffffffffffffffff166370a08231600260009054906101000a900473ffffffffffffffffffffffffffffffffffffffff166040518263ffffffff1660e01b81526004016104c79190611b8a565b60206040518083038186803b1580156104df57600080fd5b505afa1580156104f3573d6000803e3d6000fd5b505050506040513d601f19601f8201168201806040525081019061051791906118ed565b826105229190611e23565b915061053c565b808061053490611e93565b915050610336565b5060005b82518110156107ad576000600160009054906101000a900473ffffffffffffffffffffffffffffffffffffffff1673ffffffffffffffffffffffffffffffffffffffff166370a082318584815181106105c2577f4e487b7100000000000000000000000000000000000000000000000000000000600052603260045260246000fd5b60200260200101516040518263ffffffff1660e01b81526004016105e69190611b8a565b60206040518083038186803b1580156105fe57600080fd5b505afa158015610612573d6000803e3d6000fd5b505050506040513d601f19601f8201168201806040525081019061063691906118ed565b905060008111156107995760008382876106509190611dc9565b61065a9190611d98565b90506000858481518110610697577f4e487b7100000000000000000000000000000000000000000000000000000000600052603260045260246000fd5b602002602001015173ffffffffffffffffffffffffffffffffffffffff1682610bb8906040516106c690611b75565b600060405180830381858888f193505050503d8060008114610704576040519150601f19603f3d011682016040523d82523d6000602084013e610709565b606091505b50509050806107965785848151811061074b577f4e487b7100000000000000000000000000000000000000000000000000000000600052603260045260246000fd5b602002602001015173ffffffffffffffffffffffffffffffffffffffff167ff9d219039f5b6aec8c21e1a934b5c0e34c786cf4f87f3f983efa14b38e30ec4b60405160405180910390a25b50505b5080806107a590611e93565b915050610540565b50505050565b6000600160009054906101000a900473ffffffffffffffffffffffffffffffffffffffff1673ffffffffffffffffffffffffffffffffffffffff166371a8d60584846040518363ffffffff1660e01b8152600401610812929190611c67565b60006040518083038186803b15801561082a57600080fd5b505afa15801561083e573d6000803e3d6000fd5b505050506040513d6000823e3d601f19601f820116820180604052508101906108679190611883565b905060005b815181101561092b5760048282815181106108b0577f4e487b7100000000000000000000000000000000000000000000000000000000600052603260045260246000fd5b60200260200101519080600181540180825580915050600190039060005260206000200160009091909190916101000a81548173ffffffffffffffffffffffffffffffffffffffff021916908373ffffffffffffffffffffffffffffffffffffffff160217905550808061092390611e93565b91505061086c565b50505050565b600060035414610976576040517f08c379a000000000000000000000000000000000000000000000000000000000815260040161096d90611bc7565b60405180910390fd5b476007819055506000600754116109c2576040517f08c379a00000000000000000000000000000000000000000000000000000000081526004016109b990611c47565b60405180910390fd5b80600381905550600160009054906101000a900473ffffffffffffffffffffffffffffffffffffffff1673ffffffffffffffffffffffffffffffffffffffff16635fe8e7cc6040518163ffffffff1660e01b815260040160006040518083038186803b158015610a3157600080fd5b505afa158015610a45573d6000803e3d6000fd5b505050506040513d6000823e3d601f19601f82011682018060405250810190610a6e9190611883565b60049080519060200190610a839291906116a8565b50600160009054906101000a900473ffffffffffffffffffffffffffffffffffffffff1673ffffffffffffffffffffffffffffffffffffffff166318160ddd6040518163ffffffff1660e01b815260040160206040518083038186803b158015610aec57600080fd5b505afa158015610b00573d6000803e3d6000fd5b505050506040513d601f19601f82011682018060405250810190610b2491906118ed565b60068190555060005b600480549050811015610f4c57600160009054906101000a900473ffffffffffffffffffffffffffffffffffffffff1673ffffffffffffffffffffffffffffffffffffffff166370a0823160048381548110610bb2577f4e487b7100000000000000000000000000000000000000000000000000000000600052603260045260246000fd5b9060005260206000200160009054906101000a900473ffffffffffffffffffffffffffffffffffffffff166040518263ffffffff1660e01b8152600401610bf99190611b8a565b60206040518083038186803b158015610c1157600080fd5b505afa158015610c25573d6000803e3d6000fd5b505050506040513d601f19601f82011682018060405250810190610c4991906118ed565b6005600060048481548110610c87577f4e487b7100000000000000000000000000000000000000000000000000000000600052603260045260246000fd5b9060005260206000200160009054906101000a900473ffffffffffffffffffffffffffffffffffffffff1673ffffffffffffffffffffffffffffffffffffffff1673ffffffffffffffffffffffffffffffffffffffff16815260200190815260200160002081905550600260009054906101000a900473ffffffffffffffffffffffffffffffffffffffff1673ffffffffffffffffffffffffffffffffffffffff1660048281548110610d63577f4e487b7100000000000000000000000000000000000000000000000000000000600052603260045260246000fd5b9060005260206000200160009054906101000a900473ffffffffffffffffffffffffffffffffffffffff1673ffffffffffffffffffffffffffffffffffffffff161415610f3957600160009054906101000a900473ffffffffffffffffffffffffffffffffffffffff1673ffffffffffffffffffffffffffffffffffffffff166370a08231600260009054906101000a900473ffffffffffffffffffffffffffffffffffffffff166040518263ffffffff1660e01b8152600401610e279190611b8a565b60206040518083038186803b158015610e3f57600080fd5b505afa158015610e53573d6000803e3d6000fd5b505050506040513d601f19601f82011682018060405250810190610e7791906118ed565b60066000828254610e889190611e23565b9250508190555060006005600060048481548110610ecf577f4e487b7100000000000000000000000000000000000000000000000000000000600052603260045260246000fd5b9060005260206000200160009054906101000a900473ffffffffffffffffffffffffffffffffffffffff1673ffffffffffffffffffffffffffffffffffffffff1673ffffffffffffffffffffffffffffffffffffffff168152602001908152602001600020819055505b8080610f4490611e93565b915050610b2d565b5050565b600060035411610f95576040517f08c379a0000000000000000000000000000000000000000000000000000000008152600401610f8c90611c07565b60405180910390fd5b600060085490505b600480549050600854108015610fc1575060035481610fbc9190611d42565b600854105b1561123f57600060056000600460085481548110611008577f4e487b7100000000000000000000000000000000000000000000000000000000600052603260045260246000fd5b9060005260206000200160009054906101000a900473ffffffffffffffffffffffffffffffffffffffff1673ffffffffffffffffffffffffffffffffffffffff1673ffffffffffffffffffffffffffffffffffffffff16815260200190815260200160002054905060008111156112215760006006548260075461108c9190611dc9565b6110969190611d98565b905060006004600854815481106110d6577f4e487b7100000000000000000000000000000000000000000000000000000000600052603260045260246000fd5b9060005260206000200160009054906101000a900473ffffffffffffffffffffffffffffffffffffffff1673ffffffffffffffffffffffffffffffffffffffff1682610bb89060405161112890611b75565b600060405180830381858888f193505050503d8060008114611166576040519150601f19603f3d011682016040523d82523d6000602084013e61116b565b606091505b505090508061121e576004600854815481106111b0577f4e487b7100000000000000000000000000000000000000000000000000000000600052603260045260246000fd5b9060005260206000200160009054906101000a900473ffffffffffffffffffffffffffffffffffffffff1673ffffffffffffffffffffffffffffffffffffffff167ff9d219039f5b6aec8c21e1a934b5c0e34c786cf4f87f3f983efa14b38e30ec4b60405160405180910390a25b50505b506008600081548092919061123590611e93565b9190505550610f9d565b6004805490506008541415611283576112566115b4565b7f0f60e0a86789f44d4a913816fb3d4b99228d5b2ac33e6f1e8881162109d1ddae60405160405180910390a15b50565b61128e6115dc565b73ffffffffffffffffffffffffffffffffffffffff166112ac611405565b73ffffffffffffffffffffffffffffffffffffffff1614611302576040517f08c379a00000000000000000000000000000000000000000000000000000000081526004016112f990611c27565b60405180910390fd5b600061130c611405565b73ffffffffffffffffffffffffffffffffffffffff1647610bb89060405161133390611b75565b600060405180830381858888f193505050503d8060008114611371576040519150601f19603f3d011682016040523d82523d6000602084013e611376565b606091505b5050905050565b6113856115dc565b73ffffffffffffffffffffffffffffffffffffffff166113a3611405565b73ffffffffffffffffffffffffffffffffffffffff16146113f9576040517f08c379a00000000000000000000000000000000000000000000000000000000081526004016113f090611c27565b60405180910390fd5b61140360006115e4565b565b60008060009054906101000a900473ffffffffffffffffffffffffffffffffffffffff16905090565b606060048054806020026020016040519081016040528092919081815260200182805480156114b257602002820191906000526020600020905b8160009054906101000a900473ffffffffffffffffffffffffffffffffffffffff1673ffffffffffffffffffffffffffffffffffffffff1681526020019060010190808311611468575b5050505050905090565b6114c46115dc565b73ffffffffffffffffffffffffffffffffffffffff166114e2611405565b73ffffffffffffffffffffffffffffffffffffffff1614611538576040517f08c379a000000000000000000000000000000000000000000000000000000000815260040161152f90611c27565b60405180910390fd5b600073ffffffffffffffffffffffffffffffffffffffff168173ffffffffffffffffffffffffffffffffffffffff1614156115a8576040517f08c379a000000000000000000000000000000000000000000000000000000000815260040161159f90611be7565b60405180910390fd5b6115b1816115e4565b50565b600860009055600360009055600460006115ce9190611732565b600660009055600760009055565b600033905090565b60008060009054906101000a900473ffffffffffffffffffffffffffffffffffffffff169050816000806101000a81548173ffffffffffffffffffffffffffffffffffffffff021916908373ffffffffffffffffffffffffffffffffffffffff1602179055508173ffffffffffffffffffffffffffffffffffffffff168173ffffffffffffffffffffffffffffffffffffffff167f8be0079c531659141344cd1fd0a4f28419497f9722a3daafe3b4186f6b6457e060405160405180910390a35050565b828054828255906000526020600020908101928215611721579160200282015b828111156117205782518260006101000a81548173ffffffffffffffffffffffffffffffffffffffff021916908373ffffffffffffffffffffffffffffffffffffffff160217905550916020019190600101906116c8565b5b50905061172e9190611753565b5090565b50805460008255906000526020600020908101906117509190611753565b50565b5b8082111561176c576000816000905550600101611754565b5090565b600061178361177e84611cc1565b611c90565b905080838252602082019050828560208602820111156117a257600080fd5b60005b858110156117d257816117b888826117f1565b8452602084019350602083019250506001810190506117a5565b5050509392505050565b6000813590506117eb81611f69565b92915050565b60008151905061180081611f69565b92915050565b600082601f83011261181757600080fd5b8151611827848260208601611770565b91505092915050565b60008135905061183f81611f80565b92915050565b60008151905061185481611f80565b92915050565b60006020828403121561186c57600080fd5b600061187a848285016117dc565b91505092915050565b60006020828403121561189557600080fd5b600082015167ffffffffffffffff8111156118af57600080fd5b6118bb84828501611806565b91505092915050565b6000602082840312156118d657600080fd5b60006118e484828501611830565b91505092915050565b6000602082840312156118ff57600080fd5b600061190d84828501611845565b91505092915050565b6000806040838503121561192957600080fd5b600061193785828601611830565b925050602061194885828601611830565b9150509250929050565b600061195e838361196a565b60208301905092915050565b61197381611e57565b82525050565b61198281611e57565b82525050565b600061199382611cfd565b61199d8185611d15565b93506119a883611ced565b8060005b838110156119d95781516119c08882611952565b97506119cb83611d08565b9250506001810190506119ac565b5085935050505092915050565b60006119f3602083611d31565b91507f546865726520697320616c726561647920612062617463682072756e6e696e676000830152602082019050919050565b6000611a33602683611d31565b91507f4f776e61626c653a206e6577206f776e657220697320746865207a65726f206160008301527f64647265737300000000000000000000000000000000000000000000000000006020830152604082019050919050565b6000611a99601083611d31565b91507f4e6f2062617463682072756e6e696e67000000000000000000000000000000006000830152602082019050919050565b6000611ad9602083611d31565b91507f4f776e61626c653a2063616c6c6572206973206e6f7420746865206f776e65726000830152602082019050919050565b6000611b19600083611d26565b9150600082019050919050565b6000611b33601b83611d31565b91507f54686572652068617320746f20626520736f6d652072657761726400000000006000830152602082019050919050565b611b6f81611e89565b82525050565b6000611b8082611b0c565b9150819050919050565b6000602082019050611b9f6000830184611979565b92915050565b60006020820190508181036000830152611bbf8184611988565b905092915050565b60006020820190508181036000830152611be0816119e6565b9050919050565b60006020820190508181036000830152611c0081611a26565b9050919050565b60006020820190508181036000830152611c2081611a8c565b9050919050565b60006020820190508181036000830152611c4081611acc565b9050919050565b60006020820190508181036000830152611c6081611b26565b9050919050565b6000604082019050611c7c6000830185611b66565b611c896020830184611b66565b9392505050565b6000604051905081810181811067ffffffffffffffff82111715611cb757611cb6611f3a565b5b8060405250919050565b600067ffffffffffffffff821115611cdc57611cdb611f3a565b5b602082029050602081019050919050565b6000819050602082019050919050565b600081519050919050565b6000602082019050919050565b600082825260208201905092915050565b600081905092915050565b600082825260208201905092915050565b6000611d4d82611e89565b9150611d5883611e89565b9250827fffffffffffffffffffffffffffffffffffffffffffffffffffffffffffffffff03821115611d8d57611d8c611edc565b5b828201905092915050565b6000611da382611e89565b9150611dae83611e89565b925082611dbe57611dbd611f0b565b5b828204905092915050565b6000611dd482611e89565b9150611ddf83611e89565b9250817fffffffffffffffffffffffffffffffffffffffffffffffffffffffffffffffff0483118215151615611e1857611e17611edc565b5b828202905092915050565b6000611e2e82611e89565b9150611e3983611e89565b925082821015611e4c57611e4b611edc565b5b828203905092915050565b6000611e6282611e69565b9050919050565b600073ffffffffffffffffffffffffffffffffffffffff82169050919050565b6000819050919050565b6000611e9e82611e89565b91507fffffffffffffffffffffffffffffffffffffffffffffffffffffffffffffffff821415611ed157611ed0611edc565b5b600182019050919050565b7f4e487b7100000000000000000000000000000000000000000000000000000000600052601160045260246000fd5b7f4e487b7100000000000000000000000000000000000000000000000000000000600052601260045260246000fd5b7f4e487b7100000000000000000000000000000000000000000000000000000000600052604160045260246000fd5b611f7281611e57565b8114611f7d57600080fd5b50565b611f8981611e89565b8114611f9457600080fd5b5056fea2646970667358221220085e3d789e2b7eb41188c744a89c0e3bfe70c15f3d7417f54edf11f7c9d5ad0064736f6c63430008000033",
  "linkReferences": {},
  "deployedLinkReferences": {}
}