{
  "_format": "hh-sol-artifact-1",
  "contractName": "Rewards",
  "sourceName": "contracts/Rewards.sol",
  "abi": [
    {
      "inputs": [
        {
          "internalType": "address",
          "name": "underlying",
          "type": "address"
        },
        {
          "internalType": "address",
          "name": "blacklistAddress",
          "type": "address"
        }
      ],
      "stateMutability": "nonpayable",
      "type": "constructor"
    },
    {
      "anonymous": false,
      "inputs": [],
      "name": "BatchCompleted",
      "type": "event"
    },
    {
      "anonymous": false,
      "inputs": [
        {
          "indexed": true,
          "internalType": "address",
          "name": "previousOwner",
          "type": "address"
        },
        {
          "indexed": true,
          "internalType": "address",
          "name": "newOwner",
          "type": "address"
        }
      ],
      "name": "OwnershipTransferred",
      "type": "event"
    },
    {
      "anonymous": false,
      "inputs": [
        {
          "indexed": true,
          "internalType": "address",
          "name": "",
          "type": "address"
        }
      ],
      "name": "ReceiverRefusedReward",
      "type": "event"
    },
    {
      "inputs": [
        {
          "internalType": "uint256",
          "name": "batchSize",
          "type": "uint256"
        }
      ],
      "name": "initiateBatch",
      "outputs": [],
      "stateMutability": "payable",
      "type": "function"
    },
    {
      "inputs": [],
      "name": "notifyRewards",
      "outputs": [],
      "stateMutability": "payable",
      "type": "function"
    },
    {
      "inputs": [],
      "name": "owner",
      "outputs": [
        {
          "internalType": "address",
          "name": "",
          "type": "address"
        }
      ],
      "stateMutability": "view",
      "type": "function"
    },
    {
      "inputs": [],
      "name": "processBatch",
      "outputs": [],
      "stateMutability": "nonpayable",
      "type": "function"
    },
    {
      "inputs": [],
      "name": "recoverAssets",
      "outputs": [],
      "stateMutability": "nonpayable",
      "type": "function"
    },
    {
      "inputs": [],
      "name": "renounceOwnership",
      "outputs": [],
      "stateMutability": "nonpayable",
      "type": "function"
    },
    {
      "inputs": [
        {
          "internalType": "address",
          "name": "newOwner",
          "type": "address"
        }
      ],
      "name": "transferOwnership",
      "outputs": [],
      "stateMutability": "nonpayable",
      "type": "function"
    },
    {
      "inputs": [
        {
          "internalType": "uint256",
          "name": "batchSize",
          "type": "uint256"
        },
        {
          "internalType": "uint256",
          "name": "offset",
          "type": "uint256"
        }
      ],
      "name": "updateHolders",
      "outputs": [],
      "stateMutability": "nonpayable",
      "type": "function"
    }
  ],
  "bytecode": "0x608060405260006008553480156200001657600080fd5b50604051620020913803806200209183398181016040528101906200003c9190620001c9565b6200005c62000050620000e660201b60201c565b620000ee60201b60201c565b81600160006101000a81548173ffffffffffffffffffffffffffffffffffffffff021916908373ffffffffffffffffffffffffffffffffffffffff16021790555080600260006101000a81548173ffffffffffffffffffffffffffffffffffffffff021916908373ffffffffffffffffffffffffffffffffffffffff160217905550505062000258565b600033905090565b60008060009054906101000a900473ffffffffffffffffffffffffffffffffffffffff169050816000806101000a81548173ffffffffffffffffffffffffffffffffffffffff021916908373ffffffffffffffffffffffffffffffffffffffff1602179055508173ffffffffffffffffffffffffffffffffffffffff168173ffffffffffffffffffffffffffffffffffffffff167f8be0079c531659141344cd1fd0a4f28419497f9722a3daafe3b4186f6b6457e060405160405180910390a35050565b600081519050620001c3816200023e565b92915050565b60008060408385031215620001dd57600080fd5b6000620001ed85828601620001b2565b92505060206200020085828601620001b2565b9150509250929050565b600062000217826200021e565b9050919050565b600073ffffffffffffffffffffffffffffffffffffffff82169050919050565b62000249816200020a565b81146200025557600080fd5b50565b611e2980620002686000396000f3fe60806040526004361061007b5760003560e01c806363c7feef1161004e57806363c7feef146100e6578063715018a6146100fd5780638da5cb5b14610114578063f2fde38b1461013f5761007b565b80633be52fc4146100805780633d546fe01461008a57806342947d4d146100b35780634cd6bfbc146100cf575b600080fd5b610088610168565b005b34801561009657600080fd5b506100b160048036038101906100ac9190611852565b61077d565b005b6100cd60048036038101906100c89190611800565b6108fb565b005b3480156100db57600080fd5b506100e4610f1a565b005b3480156100f257600080fd5b506100fb611250565b005b34801561010957600080fd5b50610112611347565b005b34801561012057600080fd5b506101296113cf565b6040516101369190611a41565b60405180910390f35b34801561014b57600080fd5b5061016660048036038101906101619190611796565b6113f8565b005b6000479050600081116101b0576040517f08c379a00000000000000000000000000000000000000000000000000000000081526004016101a790611adc565b60405180910390fd5b6000600160009054906101000a900473ffffffffffffffffffffffffffffffffffffffff1673ffffffffffffffffffffffffffffffffffffffff16635fe8e7cc6040518163ffffffff1660e01b815260040160006040518083038186803b15801561021a57600080fd5b505afa15801561022e573d6000803e3d6000fd5b505050506040513d6000823e3d601f19601f8201168201806040525081019061025791906117bf565b90506000600160009054906101000a900473ffffffffffffffffffffffffffffffffffffffff1673ffffffffffffffffffffffffffffffffffffffff166318160ddd6040518163ffffffff1660e01b815260040160206040518083038186803b1580156102c357600080fd5b505afa1580156102d7573d6000803e3d6000fd5b505050506040513d601f19601f820116820180604052508101906102fb9190611829565b905060005b825181101561050657600260009054906101000a900473ffffffffffffffffffffffffffffffffffffffff1673ffffffffffffffffffffffffffffffffffffffff1683828151811061037b577f4e487b7100000000000000000000000000000000000000000000000000000000600052603260045260246000fd5b602002602001015173ffffffffffffffffffffffffffffffffffffffff1614156104f35760018382815181106103da577f4e487b7100000000000000000000000000000000000000000000000000000000600052603260045260246000fd5b602002602001019073ffffffffffffffffffffffffffffffffffffffff16908173ffffffffffffffffffffffffffffffffffffffff1681525050600160009054906101000a900473ffffffffffffffffffffffffffffffffffffffff1673ffffffffffffffffffffffffffffffffffffffff166370a08231600260009054906101000a900473ffffffffffffffffffffffffffffffffffffffff166040518263ffffffff1660e01b81526004016104919190611a41565b60206040518083038186803b1580156104a957600080fd5b505afa1580156104bd573d6000803e3d6000fd5b505050506040513d601f19601f820116820180604052508101906104e19190611829565b826104ec9190611c7f565b9150610506565b80806104fe90611cef565b915050610300565b5060005b8251811015610777576000600160009054906101000a900473ffffffffffffffffffffffffffffffffffffffff1673ffffffffffffffffffffffffffffffffffffffff166370a0823185848151811061058c577f4e487b7100000000000000000000000000000000000000000000000000000000600052603260045260246000fd5b60200260200101516040518263ffffffff1660e01b81526004016105b09190611a41565b60206040518083038186803b1580156105c857600080fd5b505afa1580156105dc573d6000803e3d6000fd5b505050506040513d601f19601f820116820180604052508101906106009190611829565b9050600081111561076357600083828761061a9190611c25565b6106249190611bf4565b90506000858481518110610661577f4e487b7100000000000000000000000000000000000000000000000000000000600052603260045260246000fd5b602002602001015173ffffffffffffffffffffffffffffffffffffffff1682610bb89060405161069090611a2c565b600060405180830381858888f193505050503d80600081146106ce576040519150601f19603f3d011682016040523d82523d6000602084013e6106d3565b606091505b505090508061076057858481518110610715577f4e487b7100000000000000000000000000000000000000000000000000000000600052603260045260246000fd5b602002602001015173ffffffffffffffffffffffffffffffffffffffff167ff9d219039f5b6aec8c21e1a934b5c0e34c786cf4f87f3f983efa14b38e30ec4b60405160405180910390a25b50505b50808061076f90611cef565b91505061050a565b50505050565b6000600160009054906101000a900473ffffffffffffffffffffffffffffffffffffffff1673ffffffffffffffffffffffffffffffffffffffff166371a8d60584846040518363ffffffff1660e01b81526004016107dc929190611afc565b60006040518083038186803b1580156107f457600080fd5b505afa158015610808573d6000803e3d6000fd5b505050506040513d6000823e3d601f19601f8201168201806040525081019061083191906117bf565b905060005b81518110156108f557600482828151811061087a577f4e487b7100000000000000000000000000000000000000000000000000000000600052603260045260246000fd5b60200260200101519080600181540180825580915050600190039060005260206000200160009091909190916101000a81548173ffffffffffffffffffffffffffffffffffffffff021916908373ffffffffffffffffffffffffffffffffffffffff16021790555080806108ed90611cef565b915050610836565b50505050565b600060035414610940576040517f08c379a000000000000000000000000000000000000000000000000000000000815260040161093790611a5c565b60405180910390fd5b4760078190555060006007541161098c576040517f08c379a000000000000000000000000000000000000000000000000000000000815260040161098390611adc565b60405180910390fd5b80600381905550600160009054906101000a900473ffffffffffffffffffffffffffffffffffffffff1673ffffffffffffffffffffffffffffffffffffffff16635fe8e7cc6040518163ffffffff1660e01b815260040160006040518083038186803b1580156109fb57600080fd5b505afa158015610a0f573d6000803e3d6000fd5b505050506040513d6000823e3d601f19601f82011682018060405250810190610a3891906117bf565b60049080519060200190610a4d9291906115e4565b50600160009054906101000a900473ffffffffffffffffffffffffffffffffffffffff1673ffffffffffffffffffffffffffffffffffffffff166318160ddd6040518163ffffffff1660e01b815260040160206040518083038186803b158015610ab657600080fd5b505afa158015610aca573d6000803e3d6000fd5b505050506040513d601f19601f82011682018060405250810190610aee9190611829565b60068190555060005b600480549050811015610f1657600160009054906101000a900473ffffffffffffffffffffffffffffffffffffffff1673ffffffffffffffffffffffffffffffffffffffff166370a0823160048381548110610b7c577f4e487b7100000000000000000000000000000000000000000000000000000000600052603260045260246000fd5b9060005260206000200160009054906101000a900473ffffffffffffffffffffffffffffffffffffffff166040518263ffffffff1660e01b8152600401610bc39190611a41565b60206040518083038186803b158015610bdb57600080fd5b505afa158015610bef573d6000803e3d6000fd5b505050506040513d601f19601f82011682018060405250810190610c139190611829565b6005600060048481548110610c51577f4e487b7100000000000000000000000000000000000000000000000000000000600052603260045260246000fd5b9060005260206000200160009054906101000a900473ffffffffffffffffffffffffffffffffffffffff1673ffffffffffffffffffffffffffffffffffffffff1673ffffffffffffffffffffffffffffffffffffffff16815260200190815260200160002081905550600260009054906101000a900473ffffffffffffffffffffffffffffffffffffffff1673ffffffffffffffffffffffffffffffffffffffff1660048281548110610d2d577f4e487b7100000000000000000000000000000000000000000000000000000000600052603260045260246000fd5b9060005260206000200160009054906101000a900473ffffffffffffffffffffffffffffffffffffffff1673ffffffffffffffffffffffffffffffffffffffff161415610f0357600160009054906101000a900473ffffffffffffffffffffffffffffffffffffffff1673ffffffffffffffffffffffffffffffffffffffff166370a08231600260009054906101000a900473ffffffffffffffffffffffffffffffffffffffff166040518263ffffffff1660e01b8152600401610df19190611a41565b60206040518083038186803b158015610e0957600080fd5b505afa158015610e1d573d6000803e3d6000fd5b505050506040513d601f19601f82011682018060405250810190610e419190611829565b60066000828254610e529190611c7f565b9250508190555060006005600060048481548110610e99577f4e487b7100000000000000000000000000000000000000000000000000000000600052603260045260246000fd5b9060005260206000200160009054906101000a900473ffffffffffffffffffffffffffffffffffffffff1673ffffffffffffffffffffffffffffffffffffffff1673ffffffffffffffffffffffffffffffffffffffff168152602001908152602001600020819055505b8080610f0e90611cef565b915050610af7565b5050565b600060035411610f5f576040517f08c379a0000000000000000000000000000000000000000000000000000000008152600401610f5690611a9c565b60405180910390fd5b600060085490505b600480549050600854108015610f8b575060035481610f869190611b9e565b600854105b1561120957600060056000600460085481548110610fd2577f4e487b7100000000000000000000000000000000000000000000000000000000600052603260045260246000fd5b9060005260206000200160009054906101000a900473ffffffffffffffffffffffffffffffffffffffff1673ffffffffffffffffffffffffffffffffffffffff1673ffffffffffffffffffffffffffffffffffffffff16815260200190815260200160002054905060008111156111eb576000600654826007546110569190611c25565b6110609190611bf4565b905060006004600854815481106110a0577f4e487b7100000000000000000000000000000000000000000000000000000000600052603260045260246000fd5b9060005260206000200160009054906101000a900473ffffffffffffffffffffffffffffffffffffffff1673ffffffffffffffffffffffffffffffffffffffff1682610bb8906040516110f290611a2c565b600060405180830381858888f193505050503d8060008114611130576040519150601f19603f3d011682016040523d82523d6000602084013e611135565b606091505b50509050806111e85760046008548154811061117a577f4e487b7100000000000000000000000000000000000000000000000000000000600052603260045260246000fd5b9060005260206000200160009054906101000a900473ffffffffffffffffffffffffffffffffffffffff1673ffffffffffffffffffffffffffffffffffffffff167ff9d219039f5b6aec8c21e1a934b5c0e34c786cf4f87f3f983efa14b38e30ec4b60405160405180910390a25b50505b50600860008154809291906111ff90611cef565b9190505550610f67565b600480549050600854141561124d576112206114f0565b7f0f60e0a86789f44d4a913816fb3d4b99228d5b2ac33e6f1e8881162109d1ddae60405160405180910390a15b50565b611258611518565b73ffffffffffffffffffffffffffffffffffffffff166112766113cf565b73ffffffffffffffffffffffffffffffffffffffff16146112cc576040517f08c379a00000000000000000000000000000000000000000000000000000000081526004016112c390611abc565b60405180910390fd5b60006112d66113cf565b73ffffffffffffffffffffffffffffffffffffffff1647610bb8906040516112fd90611a2c565b600060405180830381858888f193505050503d806000811461133b576040519150601f19603f3d011682016040523d82523d6000602084013e611340565b606091505b5050905050565b61134f611518565b73ffffffffffffffffffffffffffffffffffffffff1661136d6113cf565b73ffffffffffffffffffffffffffffffffffffffff16146113c3576040517f08c379a00000000000000000000000000000000000000000000000000000000081526004016113ba90611abc565b60405180910390fd5b6113cd6000611520565b565b60008060009054906101000a900473ffffffffffffffffffffffffffffffffffffffff16905090565b611400611518565b73ffffffffffffffffffffffffffffffffffffffff1661141e6113cf565b73ffffffffffffffffffffffffffffffffffffffff1614611474576040517f08c379a000000000000000000000000000000000000000000000000000000000815260040161146b90611abc565b60405180910390fd5b600073ffffffffffffffffffffffffffffffffffffffff168173ffffffffffffffffffffffffffffffffffffffff1614156114e4576040517f08c379a00000000000000000000000000000000000000000000000000000000081526004016114db90611a7c565b60405180910390fd5b6114ed81611520565b50565b6008600090556003600090556004600061150a919061166e565b600660009055600760009055565b600033905090565b60008060009054906101000a900473ffffffffffffffffffffffffffffffffffffffff169050816000806101000a81548173ffffffffffffffffffffffffffffffffffffffff021916908373ffffffffffffffffffffffffffffffffffffffff1602179055508173ffffffffffffffffffffffffffffffffffffffff168173ffffffffffffffffffffffffffffffffffffffff167f8be0079c531659141344cd1fd0a4f28419497f9722a3daafe3b4186f6b6457e060405160405180910390a35050565b82805482825590600052602060002090810192821561165d579160200282015b8281111561165c5782518260006101000a81548173ffffffffffffffffffffffffffffffffffffffff021916908373ffffffffffffffffffffffffffffffffffffffff16021790555091602001919060010190611604565b5b50905061166a919061168f565b5090565b508054600082559060005260206000209081019061168c919061168f565b50565b5b808211156116a8576000816000905550600101611690565b5090565b60006116bf6116ba84611b56565b611b25565b905080838252602082019050828560208602820111156116de57600080fd5b60005b8581101561170e57816116f4888261172d565b8452602084019350602083019250506001810190506116e1565b5050509392505050565b60008135905061172781611dc5565b92915050565b60008151905061173c81611dc5565b92915050565b600082601f83011261175357600080fd5b81516117638482602086016116ac565b91505092915050565b60008135905061177b81611ddc565b92915050565b60008151905061179081611ddc565b92915050565b6000602082840312156117a857600080fd5b60006117b684828501611718565b91505092915050565b6000602082840312156117d157600080fd5b600082015167ffffffffffffffff8111156117eb57600080fd5b6117f784828501611742565b91505092915050565b60006020828403121561181257600080fd5b60006118208482850161176c565b91505092915050565b60006020828403121561183b57600080fd5b600061184984828501611781565b91505092915050565b6000806040838503121561186557600080fd5b60006118738582860161176c565b92505060206118848582860161176c565b9150509250929050565b61189781611cb3565b82525050565b60006118aa602083611b8d565b91507f546865726520697320616c726561647920612062617463682072756e6e696e676000830152602082019050919050565b60006118ea602683611b8d565b91507f4f776e61626c653a206e6577206f776e657220697320746865207a65726f206160008301527f64647265737300000000000000000000000000000000000000000000000000006020830152604082019050919050565b6000611950601083611b8d565b91507f4e6f2062617463682072756e6e696e67000000000000000000000000000000006000830152602082019050919050565b6000611990602083611b8d565b91507f4f776e61626c653a2063616c6c6572206973206e6f7420746865206f776e65726000830152602082019050919050565b60006119d0600083611b82565b9150600082019050919050565b60006119ea601b83611b8d565b91507f54686572652068617320746f20626520736f6d652072657761726400000000006000830152602082019050919050565b611a2681611ce5565b82525050565b6000611a37826119c3565b9150819050919050565b6000602082019050611a56600083018461188e565b92915050565b60006020820190508181036000830152611a758161189d565b9050919050565b60006020820190508181036000830152611a95816118dd565b9050919050565b60006020820190508181036000830152611ab581611943565b9050919050565b60006020820190508181036000830152611ad581611983565b9050919050565b60006020820190508181036000830152611af5816119dd565b9050919050565b6000604082019050611b116000830185611a1d565b611b1e6020830184611a1d565b9392505050565b6000604051905081810181811067ffffffffffffffff82111715611b4c57611b4b611d96565b5b8060405250919050565b600067ffffffffffffffff821115611b7157611b70611d96565b5b602082029050602081019050919050565b600081905092915050565b600082825260208201905092915050565b6000611ba982611ce5565b9150611bb483611ce5565b9250827fffffffffffffffffffffffffffffffffffffffffffffffffffffffffffffffff03821115611be957611be8611d38565b5b828201905092915050565b6000611bff82611ce5565b9150611c0a83611ce5565b925082611c1a57611c19611d67565b5b828204905092915050565b6000611c3082611ce5565b9150611c3b83611ce5565b9250817fffffffffffffffffffffffffffffffffffffffffffffffffffffffffffffffff0483118215151615611c7457611c73611d38565b5b828202905092915050565b6000611c8a82611ce5565b9150611c9583611ce5565b925082821015611ca857611ca7611d38565b5b828203905092915050565b6000611cbe82611cc5565b9050919050565b600073ffffffffffffffffffffffffffffffffffffffff82169050919050565b6000819050919050565b6000611cfa82611ce5565b91507fffffffffffffffffffffffffffffffffffffffffffffffffffffffffffffffff821415611d2d57611d2c611d38565b5b600182019050919050565b7f4e487b7100000000000000000000000000000000000000000000000000000000600052601160045260246000fd5b7f4e487b7100000000000000000000000000000000000000000000000000000000600052601260045260246000fd5b7f4e487b7100000000000000000000000000000000000000000000000000000000600052604160045260246000fd5b611dce81611cb3565b8114611dd957600080fd5b50565b611de581611ce5565b8114611df057600080fd5b5056fea26469706673582212200d41e6c7d90454fd0a96ae44337573beeb8f8b88577e8eee8782211e74e61af664736f6c63430008000033",
  "linkReferences": {},
  "deployedLinkReferences": {}
}