{
  "_format": "hh-sol-artifact-1",
  "contractName": "MyToken",
  "sourceName": "contracts/MyToken.sol",
  "abi": [
    {
      "inputs": [
        {
          "internalType": "uint256",
          "name": "initialBalance",
          "type": "uint256"
        },
        {
          "internalType": "string",
          "name": "name",
          "type": "string"
        },
        {
          "internalType": "string",
          "name": "symbol",
          "type": "string"
        }
      ],
      "stateMutability": "nonpayable",
      "type": "constructor"
    },
    {
      "anonymous": false,
      "inputs": [
        {
          "indexed": true,
          "internalType": "address",
          "name": "owner",
          "type": "address"
        },
        {
          "indexed": true,
          "internalType": "address",
          "name": "spender",
          "type": "address"
        },
        {
          "indexed": false,
          "internalType": "uint256",
          "name": "value",
          "type": "uint256"
        }
      ],
      "name": "Approval",
      "type": "event"
    },
    {
      "anonymous": false,
      "inputs": [
        {
          "indexed": true,
          "internalType": "address",
          "name": "holder",
          "type": "address"
        }
      ],
      "name": "HolderAdded",
      "type": "event"
    },
    {
      "anonymous": false,
      "inputs": [
        {
          "indexed": true,
          "internalType": "address",
          "name": "holder",
          "type": "address"
        }
      ],
      "name": "HolderRemoved",
      "type": "event"
    },
    {
      "anonymous": false,
      "inputs": [
        {
          "indexed": true,
          "internalType": "address",
          "name": "from",
          "type": "address"
        },
        {
          "indexed": true,
          "internalType": "address",
          "name": "to",
          "type": "address"
        },
        {
          "indexed": false,
          "internalType": "uint256",
          "name": "value",
          "type": "uint256"
        }
      ],
      "name": "Transfer",
      "type": "event"
    },
    {
      "inputs": [
        {
          "internalType": "address",
          "name": "owner",
          "type": "address"
        },
        {
          "internalType": "address",
          "name": "spender",
          "type": "address"
        }
      ],
      "name": "allowance",
      "outputs": [
        {
          "internalType": "uint256",
          "name": "",
          "type": "uint256"
        }
      ],
      "stateMutability": "view",
      "type": "function"
    },
    {
      "inputs": [
        {
          "internalType": "address",
          "name": "spender",
          "type": "address"
        },
        {
          "internalType": "uint256",
          "name": "amount",
          "type": "uint256"
        }
      ],
      "name": "approve",
      "outputs": [
        {
          "internalType": "bool",
          "name": "",
          "type": "bool"
        }
      ],
      "stateMutability": "nonpayable",
      "type": "function"
    },
    {
      "inputs": [
        {
          "internalType": "address",
          "name": "account",
          "type": "address"
        }
      ],
      "name": "balanceOf",
      "outputs": [
        {
          "internalType": "uint256",
          "name": "",
          "type": "uint256"
        }
      ],
      "stateMutability": "view",
      "type": "function"
    },
    {
      "inputs": [],
      "name": "decimals",
      "outputs": [
        {
          "internalType": "uint8",
          "name": "",
          "type": "uint8"
        }
      ],
      "stateMutability": "view",
      "type": "function"
    },
    {
      "inputs": [
        {
          "internalType": "address",
          "name": "spender",
          "type": "address"
        },
        {
          "internalType": "uint256",
          "name": "subtractedValue",
          "type": "uint256"
        }
      ],
      "name": "decreaseAllowance",
      "outputs": [
        {
          "internalType": "bool",
          "name": "",
          "type": "bool"
        }
      ],
      "stateMutability": "nonpayable",
      "type": "function"
    },
    {
      "inputs": [],
      "name": "getHolderAmount",
      "outputs": [
        {
          "internalType": "uint256",
          "name": "",
          "type": "uint256"
        }
      ],
      "stateMutability": "view",
      "type": "function"
    },
    {
      "inputs": [],
      "name": "getHolders",
      "outputs": [
        {
          "internalType": "address[]",
          "name": "",
          "type": "address[]"
        }
      ],
      "stateMutability": "view",
      "type": "function"
    },
    {
      "inputs": [],
      "name": "getOwner",
      "outputs": [
        {
          "internalType": "address",
          "name": "",
          "type": "address"
        }
      ],
      "stateMutability": "view",
      "type": "function"
    },
    {
      "inputs": [
        {
          "internalType": "uint256",
          "name": "itemsToGet",
          "type": "uint256"
        },
        {
          "internalType": "uint256",
          "name": "offset",
          "type": "uint256"
        }
      ],
      "name": "getPagedHolders",
      "outputs": [
        {
          "internalType": "address[]",
          "name": "",
          "type": "address[]"
        }
      ],
      "stateMutability": "view",
      "type": "function"
    },
    {
      "inputs": [
        {
          "internalType": "address",
          "name": "spender",
          "type": "address"
        },
        {
          "internalType": "uint256",
          "name": "addedValue",
          "type": "uint256"
        }
      ],
      "name": "increaseAllowance",
      "outputs": [
        {
          "internalType": "bool",
          "name": "",
          "type": "bool"
        }
      ],
      "stateMutability": "nonpayable",
      "type": "function"
    },
    {
      "inputs": [],
      "name": "name",
      "outputs": [
        {
          "internalType": "string",
          "name": "",
          "type": "string"
        }
      ],
      "stateMutability": "view",
      "type": "function"
    },
    {
      "inputs": [],
      "name": "symbol",
      "outputs": [
        {
          "internalType": "string",
          "name": "",
          "type": "string"
        }
      ],
      "stateMutability": "view",
      "type": "function"
    },
    {
      "inputs": [],
      "name": "totalSupply",
      "outputs": [
        {
          "internalType": "uint256",
          "name": "",
          "type": "uint256"
        }
      ],
      "stateMutability": "view",
      "type": "function"
    },
    {
      "inputs": [
        {
          "internalType": "address",
          "name": "recipient",
          "type": "address"
        },
        {
          "internalType": "uint256",
          "name": "amount",
          "type": "uint256"
        }
      ],
      "name": "transfer",
      "outputs": [
        {
          "internalType": "bool",
          "name": "",
          "type": "bool"
        }
      ],
      "stateMutability": "nonpayable",
      "type": "function"
    },
    {
      "inputs": [
        {
          "internalType": "address",
          "name": "sender",
          "type": "address"
        },
        {
          "internalType": "address",
          "name": "recipient",
          "type": "address"
        },
        {
          "internalType": "uint256",
          "name": "amount",
          "type": "uint256"
        }
      ],
      "name": "transferFrom",
      "outputs": [
        {
          "internalType": "bool",
          "name": "",
          "type": "bool"
        }
      ],
      "stateMutability": "nonpayable",
      "type": "function"
    }
  ],
  "bytecode": "0x60806040523480156200001157600080fd5b50604051620028613803806200286183398181016040528101906200003791906200080b565b8181816003908051906020019062000051929190620006d2565b5080600490805190602001906200006a929190620006d2565b5050506200008e620000816200010760201b60201c565b846200010f60201b60201c565b620000ae620000a26200010760201b60201c565b6200028860201b60201c565b620000be6200010760201b60201c565b600760006101000a81548173ffffffffffffffffffffffffffffffffffffffff021916908373ffffffffffffffffffffffffffffffffffffffff16021790555050505062000b52565b600033905090565b600073ffffffffffffffffffffffffffffffffffffffff168273ffffffffffffffffffffffffffffffffffffffff16141562000182576040517f08c379a00000000000000000000000000000000000000000000000000000000081526004016200017990620008e6565b60405180910390fd5b62000196600083836200033360201b60201c565b8060026000828254620001aa91906200099d565b92505081905550806000808473ffffffffffffffffffffffffffffffffffffffff1673ffffffffffffffffffffffffffffffffffffffff16815260200190815260200160002060008282546200020191906200099d565b925050819055508173ffffffffffffffffffffffffffffffffffffffff16600073ffffffffffffffffffffffffffffffffffffffff167fddf252ad1be2c89b69c2b068fc378daa952ba7f163c4a11628f55a4df523b3ef8360405162000268919062000908565b60405180910390a362000284600083836200033860201b60201c565b5050565b620002a38160056200038560201b62000a2a1790919060201c565b15620002ed578073ffffffffffffffffffffffffffffffffffffffff167f9894d458cf29e8bc4eb7e591bac54b31dc90125dfa852474419972ab4347dd1260405160405180910390a25b8073ffffffffffffffffffffffffffffffffffffffff167f9894d458cf29e8bc4eb7e591bac54b31dc90125dfa852474419972ab4347dd1260405160405180910390a250565b505050565b6000811115620003545762000353826200028860201b60201c565b5b60006200036784620003bd60201b60201c565b141562000380576200037f836200040560201b60201c565b5b505050565b6000620003b5836000018373ffffffffffffffffffffffffffffffffffffffff1660001b6200046d60201b60201c565b905092915050565b60008060008373ffffffffffffffffffffffffffffffffffffffff1673ffffffffffffffffffffffffffffffffffffffff168152602001908152602001600020549050919050565b62000420816005620004e760201b62000a5a1790919060201c565b156200046a578073ffffffffffffffffffffffffffffffffffffffff167fd9bc583d1445615d8b795b7374f03ff79efa83b6359a91331efd95e4cf023ab660405160405180910390a25b50565b60006200048183836200051f60201b60201c565b620004dc578260000182908060018154018082558091505060019003906000526020600020016000909190919091505582600001805490508360010160008481526020019081526020016000208190555060019050620004e1565b600090505b92915050565b600062000517836000018373ffffffffffffffffffffffffffffffffffffffff1660001b6200054260201b60201c565b905092915050565b600080836001016000848152602001908152602001600020541415905092915050565b60008083600101600084815260200190815260200160002054905060008114620006c6576000600182620005779190620009fa565b9050600060018660000180549050620005919190620009fa565b90508181146200064f576000866000018281548110620005da577f4e487b7100000000000000000000000000000000000000000000000000000000600052603260045260246000fd5b906000526020600020015490508087600001848154811062000625577f4e487b7100000000000000000000000000000000000000000000000000000000600052603260045260246000fd5b90600052602060002001819055508387600101600083815260200190815260200160002081905550505b856000018054806200068a577f4e487b7100000000000000000000000000000000000000000000000000000000600052603160045260246000fd5b600190038181906000526020600020016000905590558560010160008681526020019081526020016000206000905560019350505050620006cc565b60009150505b92915050565b828054620006e09062000a75565b90600052602060002090601f01602090048101928262000704576000855562000750565b82601f106200071f57805160ff191683800117855562000750565b8280016001018555821562000750579182015b828111156200074f57825182559160200191906001019062000732565b5b5090506200075f919062000763565b5090565b5b808211156200077e57600081600090555060010162000764565b5090565b600062000799620007938462000959565b62000925565b905082815260208101848484011115620007b257600080fd5b620007bf84828562000a3f565b509392505050565b600082601f830112620007d957600080fd5b8151620007eb84826020860162000782565b91505092915050565b600081519050620008058162000b38565b92915050565b6000806000606084860312156200082157600080fd5b60006200083186828701620007f4565b935050602084015167ffffffffffffffff8111156200084f57600080fd5b6200085d86828701620007c7565b925050604084015167ffffffffffffffff8111156200087b57600080fd5b6200088986828701620007c7565b9150509250925092565b6000620008a2601f836200098c565b91507f45524332303a206d696e7420746f20746865207a65726f2061646472657373006000830152602082019050919050565b620008e08162000a35565b82525050565b60006020820190508181036000830152620009018162000893565b9050919050565b60006020820190506200091f6000830184620008d5565b92915050565b6000604051905081810181811067ffffffffffffffff821117156200094f576200094e62000b09565b5b8060405250919050565b600067ffffffffffffffff82111562000977576200097662000b09565b5b601f19601f8301169050602081019050919050565b600082825260208201905092915050565b6000620009aa8262000a35565b9150620009b78362000a35565b9250827fffffffffffffffffffffffffffffffffffffffffffffffffffffffffffffffff03821115620009ef57620009ee62000aab565b5b828201905092915050565b600062000a078262000a35565b915062000a148362000a35565b92508282101562000a2a5762000a2962000aab565b5b828203905092915050565b6000819050919050565b60005b8381101562000a5f57808201518184015260208101905062000a42565b8381111562000a6f576000848401525b50505050565b6000600282049050600182168062000a8e57607f821691505b6020821081141562000aa55762000aa462000ada565b5b50919050565b7f4e487b7100000000000000000000000000000000000000000000000000000000600052601160045260246000fd5b7f4e487b7100000000000000000000000000000000000000000000000000000000600052602260045260246000fd5b7f4e487b7100000000000000000000000000000000000000000000000000000000600052604160045260246000fd5b62000b438162000a35565b811462000b4f57600080fd5b50565b611cff8062000b626000396000f3fe608060405234801561001057600080fd5b50600436106100f55760003560e01c80635fe8e7cc1161009757806395d89b411161006657806395d89b411461029e578063a457c2d7146102bc578063a9059cbb146102ec578063dd62ed3e1461031c576100f5565b80635fe8e7cc1461020257806370a082311461022057806371a8d60514610250578063893d20e814610280576100f5565b806323b872dd116100d357806323b872dd146101665780632b013f7814610196578063313ce567146101b457806339509351146101d2576100f5565b806306fdde03146100fa578063095ea7b31461011857806318160ddd14610148575b600080fd5b61010261034c565b60405161010f91906118f2565b60405180910390f35b610132600480360381019061012d919061141e565b6103de565b60405161013f91906118d7565b60405180910390f35b6101506103fc565b60405161015d9190611a14565b60405180910390f35b610180600480360381019061017b91906113cf565b610406565b60405161018d91906118d7565b60405180910390f35b61019e6104fe565b6040516101ab9190611a14565b60405180910390f35b6101bc61050f565b6040516101c99190611a2f565b60405180910390f35b6101ec60048036038101906101e7919061141e565b610518565b6040516101f991906118d7565b60405180910390f35b61020a6105c4565b60405161021791906118b5565b60405180910390f35b61023a6004803603810190610235919061136a565b6105d5565b6040516102479190611a14565b60405180910390f35b61026a6004803603810190610265919061145a565b61061d565b60405161027791906118b5565b60405180910390f35b6102886107de565b604051610295919061189a565b60405180910390f35b6102a6610808565b6040516102b391906118f2565b60405180910390f35b6102d660048036038101906102d1919061141e565b61089a565b6040516102e391906118d7565b60405180910390f35b6103066004803603810190610301919061141e565b610985565b60405161031391906118d7565b60405180910390f35b61033660048036038101906103319190611393565b6109a3565b6040516103439190611a14565b60405180910390f35b60606003805461035b90611bb1565b80601f016020809104026020016040519081016040528092919081815260200182805461038790611bb1565b80156103d45780601f106103a9576101008083540402835291602001916103d4565b820191906000526020600020905b8154815290600101906020018083116103b757829003601f168201915b5050505050905090565b60006103f26103eb610a8a565b8484610a92565b6001905092915050565b6000600254905090565b6000610413848484610c5d565b6000600160008673ffffffffffffffffffffffffffffffffffffffff1673ffffffffffffffffffffffffffffffffffffffff168152602001908152602001600020600061045e610a8a565b73ffffffffffffffffffffffffffffffffffffffff1673ffffffffffffffffffffffffffffffffffffffff168152602001908152602001600020549050828110156104de576040517f08c379a00000000000000000000000000000000000000000000000000000000081526004016104d590611974565b60405180910390fd5b6104f2856104ea610a8a565b858403610a92565b60019150509392505050565b600061050a6005610ede565b905090565b60006012905090565b60006105ba610525610a8a565b848460016000610533610a8a565b73ffffffffffffffffffffffffffffffffffffffff1673ffffffffffffffffffffffffffffffffffffffff16815260200190815260200160002060008873ffffffffffffffffffffffffffffffffffffffff1673ffffffffffffffffffffffffffffffffffffffff168152602001908152602001600020546105b59190611a9f565b610a92565b6001905092915050565b60606105d06005610ef3565b905090565b60008060008373ffffffffffffffffffffffffffffffffffffffff1673ffffffffffffffffffffffffffffffffffffffff168152602001908152602001600020549050919050565b6060600061062b6005610ede565b905082811161066f576040517f08c379a000000000000000000000000000000000000000000000000000000000815260040161066690611994565b60405180910390fd5b600081848661067e9190611a9f565b116106895784610696565b83826106959190611af5565b5b905060008167ffffffffffffffff8111156106da577f4e487b7100000000000000000000000000000000000000000000000000000000600052604160045260246000fd5b6040519080825280602002602001820160405280156107085781602001602082028036833780820191505090505b50905060005b868110801561072757508386826107259190611a9f565b105b156107d15761074b868261073b9190611a9f565b6005610f1490919063ffffffff16565b828281518110610784577f4e487b7100000000000000000000000000000000000000000000000000000000600052603260045260246000fd5b602002602001019073ffffffffffffffffffffffffffffffffffffffff16908173ffffffffffffffffffffffffffffffffffffffff168152505080806107c990611be3565b91505061070e565b5080935050505092915050565b6000600760009054906101000a900473ffffffffffffffffffffffffffffffffffffffff16905090565b60606004805461081790611bb1565b80601f016020809104026020016040519081016040528092919081815260200182805461084390611bb1565b80156108905780601f1061086557610100808354040283529160200191610890565b820191906000526020600020905b81548152906001019060200180831161087357829003601f168201915b5050505050905090565b600080600160006108a9610a8a565b73ffffffffffffffffffffffffffffffffffffffff1673ffffffffffffffffffffffffffffffffffffffff16815260200190815260200160002060008573ffffffffffffffffffffffffffffffffffffffff1673ffffffffffffffffffffffffffffffffffffffff16815260200190815260200160002054905082811015610966576040517f08c379a000000000000000000000000000000000000000000000000000000000815260040161095d906119f4565b60405180910390fd5b61097a610971610a8a565b85858403610a92565b600191505092915050565b6000610999610992610a8a565b8484610c5d565b6001905092915050565b6000600160008473ffffffffffffffffffffffffffffffffffffffff1673ffffffffffffffffffffffffffffffffffffffff16815260200190815260200160002060008373ffffffffffffffffffffffffffffffffffffffff1673ffffffffffffffffffffffffffffffffffffffff16815260200190815260200160002054905092915050565b6000610a52836000018373ffffffffffffffffffffffffffffffffffffffff1660001b610f2e565b905092915050565b6000610a82836000018373ffffffffffffffffffffffffffffffffffffffff1660001b610f9e565b905092915050565b600033905090565b600073ffffffffffffffffffffffffffffffffffffffff168373ffffffffffffffffffffffffffffffffffffffff161415610b02576040517f08c379a0000000000000000000000000000000000000000000000000000000008152600401610af9906119d4565b60405180910390fd5b600073ffffffffffffffffffffffffffffffffffffffff168273ffffffffffffffffffffffffffffffffffffffff161415610b72576040517f08c379a0000000000000000000000000000000000000000000000000000000008152600401610b6990611934565b60405180910390fd5b80600160008573ffffffffffffffffffffffffffffffffffffffff1673ffffffffffffffffffffffffffffffffffffffff16815260200190815260200160002060008473ffffffffffffffffffffffffffffffffffffffff1673ffffffffffffffffffffffffffffffffffffffff168152602001908152602001600020819055508173ffffffffffffffffffffffffffffffffffffffff168373ffffffffffffffffffffffffffffffffffffffff167f8c5be1e5ebec7d5bd14f71427d1e84f3dd0314c0f7b2291e5b200ac8c7c3b92583604051610c509190611a14565b60405180910390a3505050565b600073ffffffffffffffffffffffffffffffffffffffff168373ffffffffffffffffffffffffffffffffffffffff161415610ccd576040517f08c379a0000000000000000000000000000000000000000000000000000000008152600401610cc4906119b4565b60405180910390fd5b600073ffffffffffffffffffffffffffffffffffffffff168273ffffffffffffffffffffffffffffffffffffffff161415610d3d576040517f08c379a0000000000000000000000000000000000000000000000000000000008152600401610d3490611914565b60405180910390fd5b610d48838383611124565b60008060008573ffffffffffffffffffffffffffffffffffffffff1673ffffffffffffffffffffffffffffffffffffffff16815260200190815260200160002054905081811015610dce576040517f08c379a0000000000000000000000000000000000000000000000000000000008152600401610dc590611954565b60405180910390fd5b8181036000808673ffffffffffffffffffffffffffffffffffffffff1673ffffffffffffffffffffffffffffffffffffffff16815260200190815260200160002081905550816000808573ffffffffffffffffffffffffffffffffffffffff1673ffffffffffffffffffffffffffffffffffffffff1681526020019081526020016000206000828254610e619190611a9f565b925050819055508273ffffffffffffffffffffffffffffffffffffffff168473ffffffffffffffffffffffffffffffffffffffff167fddf252ad1be2c89b69c2b068fc378daa952ba7f163c4a11628f55a4df523b3ef84604051610ec59190611a14565b60405180910390a3610ed8848484611129565b50505050565b6000610eec8260000161115c565b9050919050565b60606000610f038360000161116d565b905060608190508092505050919050565b6000610f2383600001836111c9565b60001c905092915050565b6000610f3a838361121a565b610f93578260000182908060018154018082558091505060019003906000526020600020016000909190919091505582600001805490508360010160008481526020019081526020016000208190555060019050610f98565b600090505b92915050565b60008083600101600084815260200190815260200160002054905060008114611118576000600182610fd09190611af5565b9050600060018660000180549050610fe89190611af5565b90508181146110a357600086600001828154811061102f577f4e487b7100000000000000000000000000000000000000000000000000000000600052603260045260246000fd5b9060005260206000200154905080876000018481548110611079577f4e487b7100000000000000000000000000000000000000000000000000000000600052603260045260246000fd5b90600052602060002001819055508387600101600083815260200190815260200160002081905550505b856000018054806110dd577f4e487b7100000000000000000000000000000000000000000000000000000000600052603160045260246000fd5b60019003818190600052602060002001600090559055856001016000868152602001908152602001600020600090556001935050505061111e565b60009150505b92915050565b505050565b600081111561113c5761113b8261123d565b5b6000611147846105d5565b141561115757611156836112e0565b5b505050565b600081600001805490509050919050565b6060816000018054806020026020016040519081016040528092919081815260200182805480156111bd57602002820191906000526020600020905b8154815260200190600101908083116111a9575b50505050509050919050565b6000826000018281548110611207577f4e487b7100000000000000000000000000000000000000000000000000000000600052603260045260246000fd5b9060005260206000200154905092915050565b600080836001016000848152602001908152602001600020541415905092915050565b611251816005610a2a90919063ffffffff16565b1561129a578073ffffffffffffffffffffffffffffffffffffffff167f9894d458cf29e8bc4eb7e591bac54b31dc90125dfa852474419972ab4347dd1260405160405180910390a25b8073ffffffffffffffffffffffffffffffffffffffff167f9894d458cf29e8bc4eb7e591bac54b31dc90125dfa852474419972ab4347dd1260405160405180910390a250565b6112f4816005610a5a90919063ffffffff16565b1561133d578073ffffffffffffffffffffffffffffffffffffffff167fd9bc583d1445615d8b795b7374f03ff79efa83b6359a91331efd95e4cf023ab660405160405180910390a25b50565b60008135905061134f81611c9b565b92915050565b60008135905061136481611cb2565b92915050565b60006020828403121561137c57600080fd5b600061138a84828501611340565b91505092915050565b600080604083850312156113a657600080fd5b60006113b485828601611340565b92505060206113c585828601611340565b9150509250929050565b6000806000606084860312156113e457600080fd5b60006113f286828701611340565b935050602061140386828701611340565b925050604061141486828701611355565b9150509250925092565b6000806040838503121561143157600080fd5b600061143f85828601611340565b925050602061145085828601611355565b9150509250929050565b6000806040838503121561146d57600080fd5b600061147b85828601611355565b925050602061148c85828601611355565b9150509250929050565b60006114a283836114ae565b60208301905092915050565b6114b781611b29565b82525050565b6114c681611b29565b82525050565b60006114d782611a5a565b6114e18185611a7d565b93506114ec83611a4a565b8060005b8381101561151d5781516115048882611496565b975061150f83611a70565b9250506001810190506114f0565b5085935050505092915050565b61153381611b3b565b82525050565b600061154482611a65565b61154e8185611a8e565b935061155e818560208601611b7e565b61156781611c8a565b840191505092915050565b600061157f602383611a8e565b91507f45524332303a207472616e7366657220746f20746865207a65726f206164647260008301527f65737300000000000000000000000000000000000000000000000000000000006020830152604082019050919050565b60006115e5602283611a8e565b91507f45524332303a20617070726f766520746f20746865207a65726f20616464726560008301527f73730000000000000000000000000000000000000000000000000000000000006020830152604082019050919050565b600061164b602683611a8e565b91507f45524332303a207472616e7366657220616d6f756e742065786365656473206260008301527f616c616e636500000000000000000000000000000000000000000000000000006020830152604082019050919050565b60006116b1602883611a8e565b91507f45524332303a207472616e7366657220616d6f756e742065786365656473206160008301527f6c6c6f77616e63650000000000000000000000000000000000000000000000006020830152604082019050919050565b6000611717600e83611a8e565b91507f496e76616c6964206f66667365740000000000000000000000000000000000006000830152602082019050919050565b6000611757602583611a8e565b91507f45524332303a207472616e736665722066726f6d20746865207a65726f20616460008301527f64726573730000000000000000000000000000000000000000000000000000006020830152604082019050919050565b60006117bd602483611a8e565b91507f45524332303a20617070726f76652066726f6d20746865207a65726f2061646460008301527f72657373000000000000000000000000000000000000000000000000000000006020830152604082019050919050565b6000611823602583611a8e565b91507f45524332303a2064656372656173656420616c6c6f77616e63652062656c6f7760008301527f207a65726f0000000000000000000000000000000000000000000000000000006020830152604082019050919050565b61188581611b67565b82525050565b61189481611b71565b82525050565b60006020820190506118af60008301846114bd565b92915050565b600060208201905081810360008301526118cf81846114cc565b905092915050565b60006020820190506118ec600083018461152a565b92915050565b6000602082019050818103600083015261190c8184611539565b905092915050565b6000602082019050818103600083015261192d81611572565b9050919050565b6000602082019050818103600083015261194d816115d8565b9050919050565b6000602082019050818103600083015261196d8161163e565b9050919050565b6000602082019050818103600083015261198d816116a4565b9050919050565b600060208201905081810360008301526119ad8161170a565b9050919050565b600060208201905081810360008301526119cd8161174a565b9050919050565b600060208201905081810360008301526119ed816117b0565b9050919050565b60006020820190508181036000830152611a0d81611816565b9050919050565b6000602082019050611a29600083018461187c565b92915050565b6000602082019050611a44600083018461188b565b92915050565b6000819050602082019050919050565b600081519050919050565b600081519050919050565b6000602082019050919050565b600082825260208201905092915050565b600082825260208201905092915050565b6000611aaa82611b67565b9150611ab583611b67565b9250827fffffffffffffffffffffffffffffffffffffffffffffffffffffffffffffffff03821115611aea57611ae9611c2c565b5b828201905092915050565b6000611b0082611b67565b9150611b0b83611b67565b925082821015611b1e57611b1d611c2c565b5b828203905092915050565b6000611b3482611b47565b9050919050565b60008115159050919050565b600073ffffffffffffffffffffffffffffffffffffffff82169050919050565b6000819050919050565b600060ff82169050919050565b60005b83811015611b9c578082015181840152602081019050611b81565b83811115611bab576000848401525b50505050565b60006002820490506001821680611bc957607f821691505b60208210811415611bdd57611bdc611c5b565b5b50919050565b6000611bee82611b67565b91507fffffffffffffffffffffffffffffffffffffffffffffffffffffffffffffffff821415611c2157611c20611c2c565b5b600182019050919050565b7f4e487b7100000000000000000000000000000000000000000000000000000000600052601160045260246000fd5b7f4e487b7100000000000000000000000000000000000000000000000000000000600052602260045260246000fd5b6000601f19601f8301169050919050565b611ca481611b29565b8114611caf57600080fd5b50565b611cbb81611b67565b8114611cc657600080fd5b5056fea26469706673582212205a8756620d095e4f67226b0f0ceadf46953389253a894e56da116cea2723e39364736f6c63430008000033",
  "linkReferences": {},
  "deployedLinkReferences": {}
}